Frame 1: 64 bytes on wire (512 bits), 64 bytes captured (512 bits)
    Encapsulation type: USB packets with Linux header and padding (115)
    Arrival Time: Nov 15, 2019 09:48:51.765097000 MST
    [Time shift for this packet: 0.000000000 seconds]
    Epoch Time: 1573836531.765097000 seconds
    [Time delta from previous captured frame: 0.000000000 seconds]
    [Time delta from previous displayed frame: 0.000000000 seconds]
    [Time since reference or first frame: 0.000000000 seconds]
    Frame Number: 1
    Frame Length: 64 bytes (512 bits)
    Capture Length: 64 bytes (512 bits)
    [Frame is marked: False]
    [Frame is ignored: False]
    [Protocols in frame: usb]
USB URB
    [Source: host]
    [Destination: 2.8.0]
    URB id: 0xffff9dfcbe467d80
    URB type: URB_SUBMIT ('S')
    URB transfer type: URB_CONTROL (0x02)
    Endpoint: 0x80, Direction: IN
        1... .... = Direction: IN (1)
        .... 0000 = Endpoint number: 0
    Device: 8
    URB bus id: 2
    Device setup request: relevant (0)
    Data: not present ('<')
    URB sec: 1573836531
    URB usec: 765097
    URB status: Operation now in progress (-EINPROGRESS) (-115)
    URB length [bytes]: 40
    Data length [bytes]: 0
    Interval: 0
    Start frame: 0
    Copy of Transfer Flags: 0x00000200
    Number of ISO descriptors: 0
URB setup
    bmRequestType: 0x80
        1... .... = Direction: Device-to-host
        .00. .... = Type: Standard (0x0)
        ...0 0000 = Recipient: Device (0x00)
    bRequest: GET DESCRIPTOR (6)
    Descriptor Index: 0x00
    bDescriptorType: 0x01
    Language Id: no language specified (0x0000)
    wLength: 40

0000  80 7d 46 be fc 9d ff ff 53 02 80 08 02 00 00 3c   .}F.....S......<
0010  f3 d6 ce 5d 00 00 00 00 a9 ac 0b 00 8d ff ff ff   ...]............
0020  28 00 00 00 00 00 00 00 80 06 00 01 00 00 28 00   (.............(.
0030  00 00 00 00 00 00 00 00 00 02 00 00 00 00 00 00   ................

Frame 2: 82 bytes on wire (656 bits), 82 bytes captured (656 bits)
    Encapsulation type: USB packets with Linux header and padding (115)
    Arrival Time: Nov 15, 2019 09:48:51.765173000 MST
    [Time shift for this packet: 0.000000000 seconds]
    Epoch Time: 1573836531.765173000 seconds
    [Time delta from previous captured frame: 0.000076000 seconds]
    [Time delta from previous displayed frame: 0.000076000 seconds]
    [Time since reference or first frame: 0.000076000 seconds]
    Frame Number: 2
    Frame Length: 82 bytes (656 bits)
    Capture Length: 82 bytes (656 bits)
    [Frame is marked: False]
    [Frame is ignored: False]
    [Protocols in frame: usb]
USB URB
    [Source: 2.8.0]
    [Destination: host]
    URB id: 0xffff9dfcbe467d80
    URB type: URB_COMPLETE ('C')
    URB transfer type: URB_CONTROL (0x02)
    Endpoint: 0x80, Direction: IN
        1... .... = Direction: IN (1)
        .... 0000 = Endpoint number: 0
    Device: 8
    URB bus id: 2
    Device setup request: not relevant ('-')
    Data: present (0)
    URB sec: 1573836531
    URB usec: 765173
    URB status: Success (0)
    URB length [bytes]: 18
    Data length [bytes]: 18
    [Request in: 1]
    [Time from request: 0.000076000 seconds]
    Unused Setup Header
    Interval: 0
    Start frame: 0
    Copy of Transfer Flags: 0x00000200
    Number of ISO descriptors: 0
DEVICE DESCRIPTOR
    bLength: 18
    bDescriptorType: 0x01 (DEVICE)
    bcdUSB: 0x0110
    bDeviceClass: Communications and CDC Control (0x02)
    bDeviceSubClass: 0
    bDeviceProtocol: 0
    bMaxPacketSize0: 64
    idVendor: U-Blox AG (0x1546)
    idProduct: Unknown (0x01a9)
    bcdDevice: 0x0100
    iManufacturer: 1
    iProduct: 2
    iSerialNumber: 0
    bNumConfigurations: 1

0000  80 7d 46 be fc 9d ff ff 43 02 80 08 02 00 2d 00   .}F.....C.....-.
0010  f3 d6 ce 5d 00 00 00 00 f5 ac 0b 00 00 00 00 00   ...]............
0020  12 00 00 00 12 00 00 00 00 00 00 00 00 00 00 00   ................
0030  00 00 00 00 00 00 00 00 00 02 00 00 00 00 00 00   ................
0040  12 01 10 01 02 00 00 40 46 15 a9 01 00 01 01 02   .......@F.......
0050  00 01                                             ..

Frame 3: 64 bytes on wire (512 bits), 64 bytes captured (512 bits)
    Encapsulation type: USB packets with Linux header and padding (115)
    Arrival Time: Nov 15, 2019 09:48:51.765199000 MST
    [Time shift for this packet: 0.000000000 seconds]
    Epoch Time: 1573836531.765199000 seconds
    [Time delta from previous captured frame: 0.000026000 seconds]
    [Time delta from previous displayed frame: 0.000026000 seconds]
    [Time since reference or first frame: 0.000102000 seconds]
    Frame Number: 3
    Frame Length: 64 bytes (512 bits)
    Capture Length: 64 bytes (512 bits)
    [Frame is marked: False]
    [Frame is ignored: False]
    [Protocols in frame: usb]
USB URB
    [Source: host]
    [Destination: 2.2.0]
    URB id: 0xffff9dfcbb9543c0
    URB type: URB_SUBMIT ('S')
    URB transfer type: URB_CONTROL (0x02)
    Endpoint: 0x80, Direction: IN
        1... .... = Direction: IN (1)
        .... 0000 = Endpoint number: 0
    Device: 2
    URB bus id: 2
    Device setup request: relevant (0)
    Data: not present ('<')
    URB sec: 1573836531
    URB usec: 765199
    URB status: Operation now in progress (-EINPROGRESS) (-115)
    URB length [bytes]: 40
    Data length [bytes]: 0
    Interval: 0
    Start frame: 0
    Copy of Transfer Flags: 0x00000200
    Number of ISO descriptors: 0
URB setup
    bmRequestType: 0x80
        1... .... = Direction: Device-to-host
        .00. .... = Type: Standard (0x0)
        ...0 0000 = Recipient: Device (0x00)
    bRequest: GET DESCRIPTOR (6)
    Descriptor Index: 0x00
    bDescriptorType: 0x01
    Language Id: no language specified (0x0000)
    wLength: 40

0000  c0 43 95 bb fc 9d ff ff 53 02 80 02 02 00 00 3c   .C......S......<
0010  f3 d6 ce 5d 00 00 00 00 0f ad 0b 00 8d ff ff ff   ...]............
0020  28 00 00 00 00 00 00 00 80 06 00 01 00 00 28 00   (.............(.
0030  00 00 00 00 00 00 00 00 00 02 00 00 00 00 00 00   ................

Frame 4: 82 bytes on wire (656 bits), 82 bytes captured (656 bits)
    Encapsulation type: USB packets with Linux header and padding (115)
    Arrival Time: Nov 15, 2019 09:48:51.766164000 MST
    [Time shift for this packet: 0.000000000 seconds]
    Epoch Time: 1573836531.766164000 seconds
    [Time delta from previous captured frame: 0.000965000 seconds]
    [Time delta from previous displayed frame: 0.000965000 seconds]
    [Time since reference or first frame: 0.001067000 seconds]
    Frame Number: 4
    Frame Length: 82 bytes (656 bits)
    Capture Length: 82 bytes (656 bits)
    [Frame is marked: False]
    [Frame is ignored: False]
    [Protocols in frame: usb]
USB URB
    [Source: 2.2.0]
    [Destination: host]
    URB id: 0xffff9dfcbb9543c0
    URB type: URB_COMPLETE ('C')
    URB transfer type: URB_CONTROL (0x02)
    Endpoint: 0x80, Direction: IN
        1... .... = Direction: IN (1)
        .... 0000 = Endpoint number: 0
    Device: 2
    URB bus id: 2
    Device setup request: not relevant ('-')
    Data: present (0)
    URB sec: 1573836531
    URB usec: 766164
    URB status: Success (0)
    URB length [bytes]: 18
    Data length [bytes]: 18
    [Request in: 3]
    [Time from request: 0.000965000 seconds]
    Unused Setup Header
    Interval: 0
    Start frame: 0
    Copy of Transfer Flags: 0x00000200
    Number of ISO descriptors: 0
DEVICE DESCRIPTOR
    bLength: 18
    bDescriptorType: 0x01 (DEVICE)
    bcdUSB: 0x0201
    bDeviceClass: Wireless Controller (0xe0)
    bDeviceSubClass: 1
    bDeviceProtocol: 1 (Bluetooth Programming Interface)
    bMaxPacketSize0: 64
    idVendor: Intel Corp. (0x8087)
    idProduct: Unknown (0x0a2a)
    bcdDevice: 0x0001
    iManufacturer: 0
    iProduct: 0
    iSerialNumber: 0
    bNumConfigurations: 1

0000  c0 43 95 bb fc 9d ff ff 43 02 80 02 02 00 2d 00   .C......C.....-.
0010  f3 d6 ce 5d 00 00 00 00 d4 b0 0b 00 00 00 00 00   ...]............
0020  12 00 00 00 12 00 00 00 00 00 00 00 00 00 00 00   ................
0030  00 00 00 00 00 00 00 00 00 02 00 00 00 00 00 00   ................
0040  12 01 01 02 e0 01 01 40 87 80 2a 0a 01 00 00 00   .......@..*.....
0050  00 01                                             ..

Frame 5: 64 bytes on wire (512 bits), 64 bytes captured (512 bits)
    Encapsulation type: USB packets with Linux header and padding (115)
    Arrival Time: Nov 15, 2019 09:48:51.766187000 MST
    [Time shift for this packet: 0.000000000 seconds]
    Epoch Time: 1573836531.766187000 seconds
    [Time delta from previous captured frame: 0.000023000 seconds]
    [Time delta from previous displayed frame: 0.000023000 seconds]
    [Time since reference or first frame: 0.001090000 seconds]
    Frame Number: 5
    Frame Length: 64 bytes (512 bits)
    Capture Length: 64 bytes (512 bits)
    [Frame is marked: False]
    [Frame is ignored: False]
    [Protocols in frame: usb]
USB URB
    [Source: host]
    [Destination: 2.1.0]
    URB id: 0xffff9dfcbb9543c0
    URB type: URB_SUBMIT ('S')
    URB transfer type: URB_CONTROL (0x02)
    Endpoint: 0x80, Direction: IN
        1... .... = Direction: IN (1)
        .... 0000 = Endpoint number: 0
    Device: 1
    URB bus id: 2
    Device setup request: relevant (0)
    Data: not present ('<')
    URB sec: 1573836531
    URB usec: 766187
    URB status: Operation now in progress (-EINPROGRESS) (-115)
    URB length [bytes]: 40
    Data length [bytes]: 0
    Interval: 0
    Start frame: 0
    Copy of Transfer Flags: 0x00000200
    Number of ISO descriptors: 0
URB setup
    bmRequestType: 0x80
        1... .... = Direction: Device-to-host
        .00. .... = Type: Standard (0x0)
        ...0 0000 = Recipient: Device (0x00)
    bRequest: GET DESCRIPTOR (6)
    Descriptor Index: 0x00
    bDescriptorType: 0x01
    Language Id: no language specified (0x0000)
    wLength: 40

0000  c0 43 95 bb fc 9d ff ff 53 02 80 01 02 00 00 3c   .C......S......<
0010  f3 d6 ce 5d 00 00 00 00 eb b0 0b 00 8d ff ff ff   ...]............
0020  28 00 00 00 00 00 00 00 80 06 00 01 00 00 28 00   (.............(.
0030  00 00 00 00 00 00 00 00 00 02 00 00 00 00 00 00   ................

Frame 6: 82 bytes on wire (656 bits), 82 bytes captured (656 bits)
    Encapsulation type: USB packets with Linux header and padding (115)
    Arrival Time: Nov 15, 2019 09:48:51.766193000 MST
    [Time shift for this packet: 0.000000000 seconds]
    Epoch Time: 1573836531.766193000 seconds
    [Time delta from previous captured frame: 0.000006000 seconds]
    [Time delta from previous displayed frame: 0.000006000 seconds]
    [Time since reference or first frame: 0.001096000 seconds]
    Frame Number: 6
    Frame Length: 82 bytes (656 bits)
    Capture Length: 82 bytes (656 bits)
    [Frame is marked: False]
    [Frame is ignored: False]
    [Protocols in frame: usb]
USB URB
    [Source: 2.1.0]
    [Destination: host]
    URB id: 0xffff9dfcbb9543c0
    URB type: URB_COMPLETE ('C')
    URB transfer type: URB_CONTROL (0x02)
    Endpoint: 0x80, Direction: IN
        1... .... = Direction: IN (1)
        .... 0000 = Endpoint number: 0
    Device: 1
    URB bus id: 2
    Device setup request: not relevant ('-')
    Data: present (0)
    URB sec: 1573836531
    URB usec: 766193
    URB status: Success (0)
    URB length [bytes]: 18
    Data length [bytes]: 18
    [Request in: 5]
    [Time from request: 0.000006000 seconds]
    Unused Setup Header
    Interval: 0
    Start frame: 0
    Copy of Transfer Flags: 0x00000200
    Number of ISO descriptors: 0
DEVICE DESCRIPTOR
    bLength: 18
    bDescriptorType: 0x01 (DEVICE)
    bcdUSB: 0x0200
    bDeviceClass: Hub (0x09)
    bDeviceSubClass: 0
    bDeviceProtocol: 1 (Hi-speed hub with single TT)
    bMaxPacketSize0: 64
    idVendor: Linux Foundation (0x1d6b)
    idProduct: 2.0 root hub (0x0002)
    bcdDevice: 0x0415
    iManufacturer: 3
    iProduct: 2
    iSerialNumber: 1
    bNumConfigurations: 1

0000  c0 43 95 bb fc 9d ff ff 43 02 80 01 02 00 2d 00   .C......C.....-.
0010  f3 d6 ce 5d 00 00 00 00 f1 b0 0b 00 00 00 00 00   ...]............
0020  12 00 00 00 12 00 00 00 00 00 00 00 00 00 00 00   ................
0030  00 00 00 00 00 00 00 00 00 02 00 00 00 00 00 00   ................
0040  12 01 00 02 09 00 01 40 6b 1d 02 00 15 04 03 02   .......@k.......
0050  01 01                                             ..

Frame 7: 64 bytes on wire (512 bits), 64 bytes captured (512 bits)
    Encapsulation type: USB packets with Linux header and padding (115)
    Arrival Time: Nov 15, 2019 09:48:51.998480000 MST
    [Time shift for this packet: 0.000000000 seconds]
    Epoch Time: 1573836531.998480000 seconds
    [Time delta from previous captured frame: 0.232287000 seconds]
    [Time delta from previous displayed frame: 0.232287000 seconds]
    [Time since reference or first frame: 0.233383000 seconds]
    Frame Number: 7
    Frame Length: 64 bytes (512 bits)
    Capture Length: 64 bytes (512 bits)
    [Frame is marked: False]
    [Frame is ignored: False]
    [Protocols in frame: usb]
USB URB
    [Source: 2.8.2]
    [Destination: host]
    URB id: 0xffff9dfcc08ccd80
    URB type: URB_COMPLETE ('C')
    URB transfer type: URB_BULK (0x03)
    Endpoint: 0x82, Direction: IN
        1... .... = Direction: IN (1)
        .... 0010 = Endpoint number: 2
    Device: 8
    URB bus id: 2
    Device setup request: not relevant ('-')
    Data: present (0)
    URB sec: 1573836531
    URB usec: 998480
    URB status: Success (0)
    URB length [bytes]: 0
    Data length [bytes]: 0
    [bInterfaceClass: Unknown (0xffff)]
    Unused Setup Header
    Interval: 0
    Start frame: 0
    Copy of Transfer Flags: 0x00000204
    Number of ISO descriptors: 0

0000  80 cd 8c c0 fc 9d ff ff 43 03 82 08 02 00 2d 00   ........C.....-.
0010  f3 d6 ce 5d 00 00 00 00 50 3c 0f 00 00 00 00 00   ...]....P<......
0020  00 00 00 00 00 00 00 00 00 00 00 00 00 00 00 00   ................
0030  00 00 00 00 00 00 00 00 04 02 00 00 00 00 00 00   ................

Frame 8: 64 bytes on wire (512 bits), 64 bytes captured (512 bits)
    Encapsulation type: USB packets with Linux header and padding (115)
    Arrival Time: Nov 15, 2019 09:48:51.998487000 MST
    [Time shift for this packet: 0.000000000 seconds]
    Epoch Time: 1573836531.998487000 seconds
    [Time delta from previous captured frame: 0.000007000 seconds]
    [Time delta from previous displayed frame: 0.000007000 seconds]
    [Time since reference or first frame: 0.233390000 seconds]
    Frame Number: 8
    Frame Length: 64 bytes (512 bits)
    Capture Length: 64 bytes (512 bits)
    [Frame is marked: False]
    [Frame is ignored: False]
    [Protocols in frame: usb]
USB URB
    [Source: host]
    [Destination: 2.8.2]
    URB id: 0xffff9dfcc08ccd80
    URB type: URB_SUBMIT ('S')
    URB transfer type: URB_BULK (0x03)
    Endpoint: 0x82, Direction: IN
        1... .... = Direction: IN (1)
        .... 0010 = Endpoint number: 2
    Device: 8
    URB bus id: 2
    Device setup request: not relevant ('-')
    Data: not present ('<')
    URB sec: 1573836531
    URB usec: 998487
    URB status: Operation now in progress (-EINPROGRESS) (-115)
    URB length [bytes]: 128
    Data length [bytes]: 0
    [bInterfaceClass: Unknown (0xffff)]
    Unused Setup Header
    Interval: 0
    Start frame: 0
    Copy of Transfer Flags: 0x00000204
    Number of ISO descriptors: 0

0000  80 cd 8c c0 fc 9d ff ff 53 03 82 08 02 00 2d 3c   ........S.....-<
0010  f3 d6 ce 5d 00 00 00 00 57 3c 0f 00 8d ff ff ff   ...]....W<......
0020  80 00 00 00 00 00 00 00 00 00 00 00 00 00 00 00   ................
0030  00 00 00 00 00 00 00 00 04 02 00 00 00 00 00 00   ................

Frame 9: 108 bytes on wire (864 bits), 108 bytes captured (864 bits)
    Encapsulation type: USB packets with Linux header and padding (115)
    Arrival Time: Nov 15, 2019 09:48:51.998511000 MST
    [Time shift for this packet: 0.000000000 seconds]
    Epoch Time: 1573836531.998511000 seconds
    [Time delta from previous captured frame: 0.000024000 seconds]
    [Time delta from previous displayed frame: 0.000024000 seconds]
    [Time since reference or first frame: 0.233414000 seconds]
    Frame Number: 9
    Frame Length: 108 bytes (864 bits)
    Capture Length: 108 bytes (864 bits)
    [Frame is marked: False]
    [Frame is ignored: False]
    [Protocols in frame: usb]
USB URB
    [Source: 2.8.2]
    [Destination: host]
    URB id: 0xffff9dfcc08cc540
    URB type: URB_COMPLETE ('C')
    URB transfer type: URB_BULK (0x03)
    Endpoint: 0x82, Direction: IN
        1... .... = Direction: IN (1)
        .... 0010 = Endpoint number: 2
    Device: 8
    URB bus id: 2
    Device setup request: not relevant ('-')
    Data: present (0)
    URB sec: 1573836531
    URB usec: 998511
    URB status: Success (0)
    URB length [bytes]: 44
    Data length [bytes]: 44
    [bInterfaceClass: Unknown (0xffff)]
    Unused Setup Header
    Interval: 0
    Start frame: 0
    Copy of Transfer Flags: 0x00000204
    Number of ISO descriptors: 0
Leftover Capture Data: b562011424000000000070b75b1de7de52c1511eb817eeb8...

0000  40 c5 8c c0 fc 9d ff ff 43 03 82 08 02 00 2d 00   @.......C.....-.
0010  f3 d6 ce 5d 00 00 00 00 6f 3c 0f 00 00 00 00 00   ...]....o<......
0020  2c 00 00 00 2c 00 00 00 00 00 00 00 00 00 00 00   ,...,...........
0030  00 00 00 00 00 00 00 00 04 02 00 00 00 00 00 00   ................
0040  b5 62 01 14 24 00 00 00 00 00 70 b7 5b 1d e7 de   .b..$.....p.[...
0050  52 c1 51 1e b8 17 ee b8 19 00 ea 0c 1a 00 02 eb   R.Q.............
0060  05 04 40 a1 00 00 b2 cd 00 00 13 5f               ..@........_

Frame 10: 64 bytes on wire (512 bits), 64 bytes captured (512 bits)
    Encapsulation type: USB packets with Linux header and padding (115)
    Arrival Time: Nov 15, 2019 09:48:51.998516000 MST
    [Time shift for this packet: 0.000000000 seconds]
    Epoch Time: 1573836531.998516000 seconds
    [Time delta from previous captured frame: 0.000005000 seconds]
    [Time delta from previous displayed frame: 0.000005000 seconds]
    [Time since reference or first frame: 0.233419000 seconds]
    Frame Number: 10
    Frame Length: 64 bytes (512 bits)
    Capture Length: 64 bytes (512 bits)
    [Frame is marked: False]
    [Frame is ignored: False]
    [Protocols in frame: usb]
USB URB
    [Source: host]
    [Destination: 2.8.2]
    URB id: 0xffff9dfcc08cc540
    URB type: URB_SUBMIT ('S')
    URB transfer type: URB_BULK (0x03)
    Endpoint: 0x82, Direction: IN
        1... .... = Direction: IN (1)
        .... 0010 = Endpoint number: 2
    Device: 8
    URB bus id: 2
    Device setup request: not relevant ('-')
    Data: not present ('<')
    URB sec: 1573836531
    URB usec: 998516
    URB status: Operation now in progress (-EINPROGRESS) (-115)
    URB length [bytes]: 128
    Data length [bytes]: 0
    [bInterfaceClass: Unknown (0xffff)]
    Unused Setup Header
    Interval: 0
    Start frame: 0
    Copy of Transfer Flags: 0x00000204
    Number of ISO descriptors: 0

0000  40 c5 8c c0 fc 9d ff ff 53 03 82 08 02 00 2d 3c   @.......S.....-<
0010  f3 d6 ce 5d 00 00 00 00 74 3c 0f 00 8d ff ff ff   ...]....t<......
0020  80 00 00 00 00 00 00 00 00 00 00 00 00 00 00 00   ................
0030  00 00 00 00 00 00 00 00 04 02 00 00 00 00 00 00   ................

Frame 11: 134 bytes on wire (1072 bits), 134 bytes captured (1072 bits)
    Encapsulation type: USB packets with Linux header and padding (115)
    Arrival Time: Nov 15, 2019 09:48:51.998646000 MST
    [Time shift for this packet: 0.000000000 seconds]
    Epoch Time: 1573836531.998646000 seconds
    [Time delta from previous captured frame: 0.000130000 seconds]
    [Time delta from previous displayed frame: 0.000130000 seconds]
    [Time since reference or first frame: 0.233549000 seconds]
    Frame Number: 11
    Frame Length: 134 bytes (1072 bits)
    Capture Length: 134 bytes (1072 bits)
    [Frame is marked: False]
    [Frame is ignored: False]
    [Protocols in frame: usb]
USB URB
    [Source: 2.8.2]
    [Destination: host]
    URB id: 0xffff9dfcc08cc780
    URB type: URB_COMPLETE ('C')
    URB transfer type: URB_BULK (0x03)
    Endpoint: 0x82, Direction: IN
        1... .... = Direction: IN (1)
        .... 0010 = Endpoint number: 2
    Device: 8
    URB bus id: 2
    Device setup request: not relevant ('-')
    Data: present (0)
    URB sec: 1573836531
    URB usec: 998646
    URB status: Success (0)
    URB length [bytes]: 70
    Data length [bytes]: 70
    [bInterfaceClass: Unknown (0xffff)]
    Unused Setup Header
    Interval: 0
    Start frame: 0
    Copy of Transfer Flags: 0x00000204
    Number of ISO descriptors: 0
Leftover Capture Data: 24474e524d432c3136343835322e30302c412c333934372e...

0000  80 c7 8c c0 fc 9d ff ff 43 03 82 08 02 00 2d 00   ........C.....-.
0010  f3 d6 ce 5d 00 00 00 00 f6 3c 0f 00 00 00 00 00   ...].....<......
0020  46 00 00 00 46 00 00 00 00 00 00 00 00 00 00 00   F...F...........
0030  00 00 00 00 00 00 00 00 04 02 00 00 00 00 00 00   ................
0040  24 47 4e 52 4d 43 2c 31 36 34 38 35 32 2e 30 30   $GNRMC,164852.00
0050  2c 41 2c 33 39 34 37 2e 36 35 34 31 32 2c 4e 2c   ,A,3947.65412,N,
0060  31 30 35 30 39 2e 32 30 31 35 36 2c 57 2c 30 2e   10509.20156,W,0.
0070  30 33 32 2c 2c 31 35 31 31 31 39 2c 2c 2c 41 2c   032,,151119,,,A,
0080  56 2a 30 37 0d 0a                                 V*07..

Frame 12: 64 bytes on wire (512 bits), 64 bytes captured (512 bits)
    Encapsulation type: USB packets with Linux header and padding (115)
    Arrival Time: Nov 15, 2019 09:48:51.998654000 MST
    [Time shift for this packet: 0.000000000 seconds]
    Epoch Time: 1573836531.998654000 seconds
    [Time delta from previous captured frame: 0.000008000 seconds]
    [Time delta from previous displayed frame: 0.000008000 seconds]
    [Time since reference or first frame: 0.233557000 seconds]
    Frame Number: 12
    Frame Length: 64 bytes (512 bits)
    Capture Length: 64 bytes (512 bits)
    [Frame is marked: False]
    [Frame is ignored: False]
    [Protocols in frame: usb]
USB URB
    [Source: host]
    [Destination: 2.8.2]
    URB id: 0xffff9dfcc08cc780
    URB type: URB_SUBMIT ('S')
    URB transfer type: URB_BULK (0x03)
    Endpoint: 0x82, Direction: IN
        1... .... = Direction: IN (1)
        .... 0010 = Endpoint number: 2
    Device: 8
    URB bus id: 2
    Device setup request: not relevant ('-')
    Data: not present ('<')
    URB sec: 1573836531
    URB usec: 998654
    URB status: Operation now in progress (-EINPROGRESS) (-115)
    URB length [bytes]: 128
    Data length [bytes]: 0
    [bInterfaceClass: Unknown (0xffff)]
    Unused Setup Header
    Interval: 0
    Start frame: 0
    Copy of Transfer Flags: 0x00000204
    Number of ISO descriptors: 0

0000  80 c7 8c c0 fc 9d ff ff 53 03 82 08 02 00 2d 3c   ........S.....-<
0010  f3 d6 ce 5d 00 00 00 00 fe 3c 0f 00 8d ff ff ff   ...].....<......
0020  80 00 00 00 00 00 00 00 00 00 00 00 00 00 00 00   ................
0030  00 00 00 00 00 00 00 00 04 02 00 00 00 00 00 00   ................

Frame 13: 99 bytes on wire (792 bits), 99 bytes captured (792 bits)
    Encapsulation type: USB packets with Linux header and padding (115)
    Arrival Time: Nov 15, 2019 09:48:51.998683000 MST
    [Time shift for this packet: 0.000000000 seconds]
    Epoch Time: 1573836531.998683000 seconds
    [Time delta from previous captured frame: 0.000029000 seconds]
    [Time delta from previous displayed frame: 0.000029000 seconds]
    [Time since reference or first frame: 0.233586000 seconds]
    Frame Number: 13
    Frame Length: 99 bytes (792 bits)
    Capture Length: 99 bytes (792 bits)
    [Frame is marked: False]
    [Frame is ignored: False]
    [Protocols in frame: usb]
USB URB
    [Source: 2.8.2]
    [Destination: host]
    URB id: 0xffff9dfcc08cc3c0
    URB type: URB_COMPLETE ('C')
    URB transfer type: URB_BULK (0x03)
    Endpoint: 0x82, Direction: IN
        1... .... = Direction: IN (1)
        .... 0010 = Endpoint number: 2
    Device: 8
    URB bus id: 2
    Device setup request: not relevant ('-')
    Data: present (0)
    URB sec: 1573836531
    URB usec: 998683
    URB status: Success (0)
    URB length [bytes]: 35
    Data length [bytes]: 35
    [bInterfaceClass: Unknown (0xffff)]
    Unused Setup Header
    Interval: 0
    Start frame: 0
    Copy of Transfer Flags: 0x00000204
    Number of ISO descriptors: 0
Leftover Capture Data: 24474e5654472c2c542c2c4d2c302e3033322c4e2c302e30...

0000  c0 c3 8c c0 fc 9d ff ff 43 03 82 08 02 00 2d 00   ........C.....-.
0010  f3 d6 ce 5d 00 00 00 00 1b 3d 0f 00 00 00 00 00   ...].....=......
0020  23 00 00 00 23 00 00 00 00 00 00 00 00 00 00 00   #...#...........
0030  00 00 00 00 00 00 00 00 04 02 00 00 00 00 00 00   ................
0040  24 47 4e 56 54 47 2c 2c 54 2c 2c 4d 2c 30 2e 30   $GNVTG,,T,,M,0.0
0050  33 32 2c 4e 2c 30 2e 30 36 30 2c 4b 2c 41 2a 33   32,N,0.060,K,A*3
0060  41 0d 0a                                          A..

Frame 14: 64 bytes on wire (512 bits), 64 bytes captured (512 bits)
    Encapsulation type: USB packets with Linux header and padding (115)
    Arrival Time: Nov 15, 2019 09:48:51.998686000 MST
    [Time shift for this packet: 0.000000000 seconds]
    Epoch Time: 1573836531.998686000 seconds
    [Time delta from previous captured frame: 0.000003000 seconds]
    [Time delta from previous displayed frame: 0.000003000 seconds]
    [Time since reference or first frame: 0.233589000 seconds]
    Frame Number: 14
    Frame Length: 64 bytes (512 bits)
    Capture Length: 64 bytes (512 bits)
    [Frame is marked: False]
    [Frame is ignored: False]
    [Protocols in frame: usb]
USB URB
    [Source: host]
    [Destination: 2.8.2]
    URB id: 0xffff9dfcc08cc3c0
    URB type: URB_SUBMIT ('S')
    URB transfer type: URB_BULK (0x03)
    Endpoint: 0x82, Direction: IN
        1... .... = Direction: IN (1)
        .... 0010 = Endpoint number: 2
    Device: 8
    URB bus id: 2
    Device setup request: not relevant ('-')
    Data: not present ('<')
    URB sec: 1573836531
    URB usec: 998686
    URB status: Operation now in progress (-EINPROGRESS) (-115)
    URB length [bytes]: 128
    Data length [bytes]: 0
    [bInterfaceClass: Unknown (0xffff)]
    Unused Setup Header
    Interval: 0
    Start frame: 0
    Copy of Transfer Flags: 0x00000204
    Number of ISO descriptors: 0

0000  c0 c3 8c c0 fc 9d ff ff 53 03 82 08 02 00 2d 3c   ........S.....-<
0010  f3 d6 ce 5d 00 00 00 00 1e 3d 0f 00 8d ff ff ff   ...].....=......
0020  80 00 00 00 00 00 00 00 00 00 00 00 00 00 00 00   ................
0030  00 00 00 00 00 00 00 00 04 02 00 00 00 00 00 00   ................

Frame 15: 141 bytes on wire (1128 bits), 141 bytes captured (1128 bits)
    Encapsulation type: USB packets with Linux header and padding (115)
    Arrival Time: Nov 15, 2019 09:48:51.998848000 MST
    [Time shift for this packet: 0.000000000 seconds]
    Epoch Time: 1573836531.998848000 seconds
    [Time delta from previous captured frame: 0.000162000 seconds]
    [Time delta from previous displayed frame: 0.000162000 seconds]
    [Time since reference or first frame: 0.233751000 seconds]
    Frame Number: 15
    Frame Length: 141 bytes (1128 bits)
    Capture Length: 141 bytes (1128 bits)
    [Frame is marked: False]
    [Frame is ignored: False]
    [Protocols in frame: usb]
USB URB
    [Source: 2.8.2]
    [Destination: host]
    URB id: 0xffff9dfcbbec3180
    URB type: URB_COMPLETE ('C')
    URB transfer type: URB_BULK (0x03)
    Endpoint: 0x82, Direction: IN
        1... .... = Direction: IN (1)
        .... 0010 = Endpoint number: 2
    Device: 8
    URB bus id: 2
    Device setup request: not relevant ('-')
    Data: present (0)
    URB sec: 1573836531
    URB usec: 998848
    URB status: Success (0)
    URB length [bytes]: 77
    Data length [bytes]: 77
    [bInterfaceClass: Unknown (0xffff)]
    Unused Setup Header
    Interval: 0
    Start frame: 0
    Copy of Transfer Flags: 0x00000204
    Number of ISO descriptors: 0
Leftover Capture Data: 24474e4747412c3136343835322e30302c333934372e3635...

0000  80 31 ec bb fc 9d ff ff 43 03 82 08 02 00 2d 00   .1......C.....-.
0010  f3 d6 ce 5d 00 00 00 00 c0 3d 0f 00 00 00 00 00   ...].....=......
0020  4d 00 00 00 4d 00 00 00 00 00 00 00 00 00 00 00   M...M...........
0030  00 00 00 00 00 00 00 00 04 02 00 00 00 00 00 00   ................
0040  24 47 4e 47 47 41 2c 31 36 34 38 35 32 2e 30 30   $GNGGA,164852.00
0050  2c 33 39 34 37 2e 36 35 34 31 32 2c 4e 2c 31 30   ,3947.65412,N,10
0060  35 30 39 2e 32 30 31 35 36 2c 57 2c 31 2c 30 38   509.20156,W,1,08
0070  2c 31 2e 30 37 2c 31 37 30 37 2e 32 2c 4d 2c 2d   ,1.07,1707.2,M,-
0080  32 31 2e 35 2c 4d 2c 2c 2a 34 41 0d 0a            21.5,M,,*4A..

Frame 16: 64 bytes on wire (512 bits), 64 bytes captured (512 bits)
    Encapsulation type: USB packets with Linux header and padding (115)
    Arrival Time: Nov 15, 2019 09:48:51.998859000 MST
    [Time shift for this packet: 0.000000000 seconds]
    Epoch Time: 1573836531.998859000 seconds
    [Time delta from previous captured frame: 0.000011000 seconds]
    [Time delta from previous displayed frame: 0.000011000 seconds]
    [Time since reference or first frame: 0.233762000 seconds]
    Frame Number: 16
    Frame Length: 64 bytes (512 bits)
    Capture Length: 64 bytes (512 bits)
    [Frame is marked: False]
    [Frame is ignored: False]
    [Protocols in frame: usb]
USB URB
    [Source: host]
    [Destination: 2.8.2]
    URB id: 0xffff9dfcbbec3180
    URB type: URB_SUBMIT ('S')
    URB transfer type: URB_BULK (0x03)
    Endpoint: 0x82, Direction: IN
        1... .... = Direction: IN (1)
        .... 0010 = Endpoint number: 2
    Device: 8
    URB bus id: 2
    Device setup request: not relevant ('-')
    Data: not present ('<')
    URB sec: 1573836531
    URB usec: 998859
    URB status: Operation now in progress (-EINPROGRESS) (-115)
    URB length [bytes]: 128
    Data length [bytes]: 0
    [bInterfaceClass: Unknown (0xffff)]
    Unused Setup Header
    Interval: 0
    Start frame: 0
    Copy of Transfer Flags: 0x00000204
    Number of ISO descriptors: 0

0000  80 31 ec bb fc 9d ff ff 53 03 82 08 02 00 2d 3c   .1......S.....-<
0010  f3 d6 ce 5d 00 00 00 00 cb 3d 0f 00 8d ff ff ff   ...].....=......
0020  80 00 00 00 00 00 00 00 00 00 00 00 00 00 00 00   ................
0030  00 00 00 00 00 00 00 00 04 02 00 00 00 00 00 00   ................

Frame 17: 114 bytes on wire (912 bits), 114 bytes captured (912 bits)
    Encapsulation type: USB packets with Linux header and padding (115)
    Arrival Time: Nov 15, 2019 09:48:51.998895000 MST
    [Time shift for this packet: 0.000000000 seconds]
    Epoch Time: 1573836531.998895000 seconds
    [Time delta from previous captured frame: 0.000036000 seconds]
    [Time delta from previous displayed frame: 0.000036000 seconds]
    [Time since reference or first frame: 0.233798000 seconds]
    Frame Number: 17
    Frame Length: 114 bytes (912 bits)
    Capture Length: 114 bytes (912 bits)
    [Frame is marked: False]
    [Frame is ignored: False]
    [Protocols in frame: usb]
USB URB
    [Source: 2.8.2]
    [Destination: host]
    URB id: 0xffff9dfcbbec3240
    URB type: URB_COMPLETE ('C')
    URB transfer type: URB_BULK (0x03)
    Endpoint: 0x82, Direction: IN
        1... .... = Direction: IN (1)
        .... 0010 = Endpoint number: 2
    Device: 8
    URB bus id: 2
    Device setup request: not relevant ('-')
    Data: present (0)
    URB sec: 1573836531
    URB usec: 998895
    URB status: Success (0)
    URB length [bytes]: 50
    Data length [bytes]: 50
    [bInterfaceClass: Unknown (0xffff)]
    Unused Setup Header
    Interval: 0
    Start frame: 0
    Copy of Transfer Flags: 0x00000204
    Number of ISO descriptors: 0
Leftover Capture Data: 24474e4753412c412c332c32302c31302c31352c2c2c2c2c...

0000  40 32 ec bb fc 9d ff ff 43 03 82 08 02 00 2d 00   @2......C.....-.
0010  f3 d6 ce 5d 00 00 00 00 ef 3d 0f 00 00 00 00 00   ...].....=......
0020  32 00 00 00 32 00 00 00 00 00 00 00 00 00 00 00   2...2...........
0030  00 00 00 00 00 00 00 00 04 02 00 00 00 00 00 00   ................
0040  24 47 4e 47 53 41 2c 41 2c 33 2c 32 30 2c 31 30   $GNGSA,A,3,20,10
0050  2c 31 35 2c 2c 2c 2c 2c 2c 2c 2c 2c 2c 31 2e 38   ,15,,,,,,,,,,1.8
0060  37 2c 31 2e 30 37 2c 31 2e 35 34 2c 31 2a 30 45   7,1.07,1.54,1*0E
0070  0d 0a                                             ..

Frame 18: 64 bytes on wire (512 bits), 64 bytes captured (512 bits)
    Encapsulation type: USB packets with Linux header and padding (115)
    Arrival Time: Nov 15, 2019 09:48:51.998898000 MST
    [Time shift for this packet: 0.000000000 seconds]
    Epoch Time: 1573836531.998898000 seconds
    [Time delta from previous captured frame: 0.000003000 seconds]
    [Time delta from previous displayed frame: 0.000003000 seconds]
    [Time since reference or first frame: 0.233801000 seconds]
    Frame Number: 18
    Frame Length: 64 bytes (512 bits)
    Capture Length: 64 bytes (512 bits)
    [Frame is marked: False]
    [Frame is ignored: False]
    [Protocols in frame: usb]
USB URB
    [Source: host]
    [Destination: 2.8.2]
    URB id: 0xffff9dfcbbec3240
    URB type: URB_SUBMIT ('S')
    URB transfer type: URB_BULK (0x03)
    Endpoint: 0x82, Direction: IN
        1... .... = Direction: IN (1)
        .... 0010 = Endpoint number: 2
    Device: 8
    URB bus id: 2
    Device setup request: not relevant ('-')
    Data: not present ('<')
    URB sec: 1573836531
    URB usec: 998898
    URB status: Operation now in progress (-EINPROGRESS) (-115)
    URB length [bytes]: 128
    Data length [bytes]: 0
    [bInterfaceClass: Unknown (0xffff)]
    Unused Setup Header
    Interval: 0
    Start frame: 0
    Copy of Transfer Flags: 0x00000204
    Number of ISO descriptors: 0

0000  40 32 ec bb fc 9d ff ff 53 03 82 08 02 00 2d 3c   @2......S.....-<
0010  f3 d6 ce 5d 00 00 00 00 f2 3d 0f 00 8d ff ff ff   ...].....=......
0020  80 00 00 00 00 00 00 00 00 00 00 00 00 00 00 00   ................
0030  00 00 00 00 00 00 00 00 04 02 00 00 00 00 00 00   ................

Frame 19: 110 bytes on wire (880 bits), 110 bytes captured (880 bits)
    Encapsulation type: USB packets with Linux header and padding (115)
    Arrival Time: Nov 15, 2019 09:48:51.999010000 MST
    [Time shift for this packet: 0.000000000 seconds]
    Epoch Time: 1573836531.999010000 seconds
    [Time delta from previous captured frame: 0.000112000 seconds]
    [Time delta from previous displayed frame: 0.000112000 seconds]
    [Time since reference or first frame: 0.233913000 seconds]
    Frame Number: 19
    Frame Length: 110 bytes (880 bits)
    Capture Length: 110 bytes (880 bits)
    [Frame is marked: False]
    [Frame is ignored: False]
    [Protocols in frame: usb]
USB URB
    [Source: 2.8.2]
    [Destination: host]
    URB id: 0xffff9dfcbbec3cc0
    URB type: URB_COMPLETE ('C')
    URB transfer type: URB_BULK (0x03)
    Endpoint: 0x82, Direction: IN
        1... .... = Direction: IN (1)
        .... 0010 = Endpoint number: 2
    Device: 8
    URB bus id: 2
    Device setup request: not relevant ('-')
    Data: present (0)
    URB sec: 1573836531
    URB usec: 999010
    URB status: Success (0)
    URB length [bytes]: 46
    Data length [bytes]: 46
    [bInterfaceClass: Unknown (0xffff)]
    Unused Setup Header
    Interval: 0
    Start frame: 0
    Copy of Transfer Flags: 0x00000204
    Number of ISO descriptors: 0
Leftover Capture Data: 24474e4753412c412c332c38322c2c2c2c2c2c2c2c2c2c2c...

0000  c0 3c ec bb fc 9d ff ff 43 03 82 08 02 00 2d 00   .<......C.....-.
0010  f3 d6 ce 5d 00 00 00 00 62 3e 0f 00 00 00 00 00   ...]....b>......
0020  2e 00 00 00 2e 00 00 00 00 00 00 00 00 00 00 00   ................
0030  00 00 00 00 00 00 00 00 04 02 00 00 00 00 00 00   ................
0040  24 47 4e 47 53 41 2c 41 2c 33 2c 38 32 2c 2c 2c   $GNGSA,A,3,82,,,
0050  2c 2c 2c 2c 2c 2c 2c 2c 2c 31 2e 38 37 2c 31 2e   ,,,,,,,,,1.87,1.
0060  30 37 2c 31 2e 35 34 2c 32 2a 30 30 0d 0a         07,1.54,2*00..

Frame 20: 64 bytes on wire (512 bits), 64 bytes captured (512 bits)
    Encapsulation type: USB packets with Linux header and padding (115)
    Arrival Time: Nov 15, 2019 09:48:51.999015000 MST
    [Time shift for this packet: 0.000000000 seconds]
    Epoch Time: 1573836531.999015000 seconds
    [Time delta from previous captured frame: 0.000005000 seconds]
    [Time delta from previous displayed frame: 0.000005000 seconds]
    [Time since reference or first frame: 0.233918000 seconds]
    Frame Number: 20
    Frame Length: 64 bytes (512 bits)
    Capture Length: 64 bytes (512 bits)
    [Frame is marked: False]
    [Frame is ignored: False]
    [Protocols in frame: usb]
USB URB
    [Source: host]
    [Destination: 2.8.2]
    URB id: 0xffff9dfcbbec3cc0
    URB type: URB_SUBMIT ('S')
    URB transfer type: URB_BULK (0x03)
    Endpoint: 0x82, Direction: IN
        1... .... = Direction: IN (1)
        .... 0010 = Endpoint number: 2
    Device: 8
    URB bus id: 2
    Device setup request: not relevant ('-')
    Data: not present ('<')
    URB sec: 1573836531
    URB usec: 999015
    URB status: Operation now in progress (-EINPROGRESS) (-115)
    URB length [bytes]: 128
    Data length [bytes]: 0
    [bInterfaceClass: Unknown (0xffff)]
    Unused Setup Header
    Interval: 0
    Start frame: 0
    Copy of Transfer Flags: 0x00000204
    Number of ISO descriptors: 0

0000  c0 3c ec bb fc 9d ff ff 53 03 82 08 02 00 2d 3c   .<......S.....-<
0010  f3 d6 ce 5d 00 00 00 00 67 3e 0f 00 8d ff ff ff   ...]....g>......
0020  80 00 00 00 00 00 00 00 00 00 00 00 00 00 00 00   ................
0030  00 00 00 00 00 00 00 00 04 02 00 00 00 00 00 00   ................

Frame 21: 118 bytes on wire (944 bits), 118 bytes captured (944 bits)
    Encapsulation type: USB packets with Linux header and padding (115)
    Arrival Time: Nov 15, 2019 09:48:51.999082000 MST
    [Time shift for this packet: 0.000000000 seconds]
    Epoch Time: 1573836531.999082000 seconds
    [Time delta from previous captured frame: 0.000067000 seconds]
    [Time delta from previous displayed frame: 0.000067000 seconds]
    [Time since reference or first frame: 0.233985000 seconds]
    Frame Number: 21
    Frame Length: 118 bytes (944 bits)
    Capture Length: 118 bytes (944 bits)
    [Frame is marked: False]
    [Frame is ignored: False]
    [Protocols in frame: usb]
USB URB
    [Source: 2.8.2]
    [Destination: host]
    URB id: 0xffff9dfcbbec3f00
    URB type: URB_COMPLETE ('C')
    URB transfer type: URB_BULK (0x03)
    Endpoint: 0x82, Direction: IN
        1... .... = Direction: IN (1)
        .... 0010 = Endpoint number: 2
    Device: 8
    URB bus id: 2
    Device setup request: not relevant ('-')
    Data: present (0)
    URB sec: 1573836531
    URB usec: 999082
    URB status: Success (0)
    URB length [bytes]: 54
    Data length [bytes]: 54
    [bInterfaceClass: Unknown (0xffff)]
    Unused Setup Header
    Interval: 0
    Start frame: 0
    Copy of Transfer Flags: 0x00000204
    Number of ISO descriptors: 0
Leftover Capture Data: 24474e4753412c412c332c31332c30382c30352c31352c30...

0000  00 3f ec bb fc 9d ff ff 43 03 82 08 02 00 2d 00   .?......C.....-.
0010  f3 d6 ce 5d 00 00 00 00 aa 3e 0f 00 00 00 00 00   ...].....>......
0020  36 00 00 00 36 00 00 00 00 00 00 00 00 00 00 00   6...6...........
0030  00 00 00 00 00 00 00 00 04 02 00 00 00 00 00 00   ................
0040  24 47 4e 47 53 41 2c 41 2c 33 2c 31 33 2c 30 38   $GNGSA,A,3,13,08
0050  2c 30 35 2c 31 35 2c 30 33 2c 2c 2c 2c 2c 2c 2c   ,05,15,03,,,,,,,
0060  2c 31 2e 38 37 2c 31 2e 30 37 2c 31 2e 35 34 2c   ,1.87,1.07,1.54,
0070  33 2a 30 33 0d 0a                                 3*03..

Frame 22: 64 bytes on wire (512 bits), 64 bytes captured (512 bits)
    Encapsulation type: USB packets with Linux header and padding (115)
    Arrival Time: Nov 15, 2019 09:48:51.999086000 MST
    [Time shift for this packet: 0.000000000 seconds]
    Epoch Time: 1573836531.999086000 seconds
    [Time delta from previous captured frame: 0.000004000 seconds]
    [Time delta from previous displayed frame: 0.000004000 seconds]
    [Time since reference or first frame: 0.233989000 seconds]
    Frame Number: 22
    Frame Length: 64 bytes (512 bits)
    Capture Length: 64 bytes (512 bits)
    [Frame is marked: False]
    [Frame is ignored: False]
    [Protocols in frame: usb]
USB URB
    [Source: host]
    [Destination: 2.8.2]
    URB id: 0xffff9dfcbbec3f00
    URB type: URB_SUBMIT ('S')
    URB transfer type: URB_BULK (0x03)
    Endpoint: 0x82, Direction: IN
        1... .... = Direction: IN (1)
        .... 0010 = Endpoint number: 2
    Device: 8
    URB bus id: 2
    Device setup request: not relevant ('-')
    Data: not present ('<')
    URB sec: 1573836531
    URB usec: 999086
    URB status: Operation now in progress (-EINPROGRESS) (-115)
    URB length [bytes]: 128
    Data length [bytes]: 0
    [bInterfaceClass: Unknown (0xffff)]
    Unused Setup Header
    Interval: 0
    Start frame: 0
    Copy of Transfer Flags: 0x00000204
    Number of ISO descriptors: 0

0000  00 3f ec bb fc 9d ff ff 53 03 82 08 02 00 2d 3c   .?......S.....-<
0010  f3 d6 ce 5d 00 00 00 00 ae 3e 0f 00 8d ff ff ff   ...].....>......
0020  80 00 00 00 00 00 00 00 00 00 00 00 00 00 00 00   ................
0030  00 00 00 00 00 00 00 00 04 02 00 00 00 00 00 00   ................

Frame 23: 108 bytes on wire (864 bits), 108 bytes captured (864 bits)
    Encapsulation type: USB packets with Linux header and padding (115)
    Arrival Time: Nov 15, 2019 09:48:51.999144000 MST
    [Time shift for this packet: 0.000000000 seconds]
    Epoch Time: 1573836531.999144000 seconds
    [Time delta from previous captured frame: 0.000058000 seconds]
    [Time delta from previous displayed frame: 0.000058000 seconds]
    [Time since reference or first frame: 0.234047000 seconds]
    Frame Number: 23
    Frame Length: 108 bytes (864 bits)
    Capture Length: 108 bytes (864 bits)
    [Frame is marked: False]
    [Frame is ignored: False]
    [Protocols in frame: usb]
USB URB
    [Source: 2.8.2]
    [Destination: host]
    URB id: 0xffff9dfcbbec30c0
    URB type: URB_COMPLETE ('C')
    URB transfer type: URB_BULK (0x03)
    Endpoint: 0x82, Direction: IN
        1... .... = Direction: IN (1)
        .... 0010 = Endpoint number: 2
    Device: 8
    URB bus id: 2
    Device setup request: not relevant ('-')
    Data: present (0)
    URB sec: 1573836531
    URB usec: 999144
    URB status: Success (0)
    URB length [bytes]: 44
    Data length [bytes]: 44
    [bInterfaceClass: Unknown (0xffff)]
    Unused Setup Header
    Interval: 0
    Start frame: 0
    Copy of Transfer Flags: 0x00000204
    Number of ISO descriptors: 0
Leftover Capture Data: 24474e4753412c412c332c2c2c2c2c2c2c2c2c2c2c2c2c31...

0000  c0 30 ec bb fc 9d ff ff 43 03 82 08 02 00 2d 00   .0......C.....-.
0010  f3 d6 ce 5d 00 00 00 00 e8 3e 0f 00 00 00 00 00   ...].....>......
0020  2c 00 00 00 2c 00 00 00 00 00 00 00 00 00 00 00   ,...,...........
0030  00 00 00 00 00 00 00 00 04 02 00 00 00 00 00 00   ................
0040  24 47 4e 47 53 41 2c 41 2c 33 2c 2c 2c 2c 2c 2c   $GNGSA,A,3,,,,,,
0050  2c 2c 2c 2c 2c 2c 2c 31 2e 38 37 2c 31 2e 30 37   ,,,,,,,1.87,1.07
0060  2c 31 2e 35 34 2c 34 2a 30 43 0d 0a               ,1.54,4*0C..

Frame 24: 64 bytes on wire (512 bits), 64 bytes captured (512 bits)
    Encapsulation type: USB packets with Linux header and padding (115)
    Arrival Time: Nov 15, 2019 09:48:51.999148000 MST
    [Time shift for this packet: 0.000000000 seconds]
    Epoch Time: 1573836531.999148000 seconds
    [Time delta from previous captured frame: 0.000004000 seconds]
    [Time delta from previous displayed frame: 0.000004000 seconds]
    [Time since reference or first frame: 0.234051000 seconds]
    Frame Number: 24
    Frame Length: 64 bytes (512 bits)
    Capture Length: 64 bytes (512 bits)
    [Frame is marked: False]
    [Frame is ignored: False]
    [Protocols in frame: usb]
USB URB
    [Source: host]
    [Destination: 2.8.2]
    URB id: 0xffff9dfcbbec30c0
    URB type: URB_SUBMIT ('S')
    URB transfer type: URB_BULK (0x03)
    Endpoint: 0x82, Direction: IN
        1... .... = Direction: IN (1)
        .... 0010 = Endpoint number: 2
    Device: 8
    URB bus id: 2
    Device setup request: not relevant ('-')
    Data: not present ('<')
    URB sec: 1573836531
    URB usec: 999148
    URB status: Operation now in progress (-EINPROGRESS) (-115)
    URB length [bytes]: 128
    Data length [bytes]: 0
    [bInterfaceClass: Unknown (0xffff)]
    Unused Setup Header
    Interval: 0
    Start frame: 0
    Copy of Transfer Flags: 0x00000204
    Number of ISO descriptors: 0

0000  c0 30 ec bb fc 9d ff ff 53 03 82 08 02 00 2d 3c   .0......S.....-<
0010  f3 d6 ce 5d 00 00 00 00 ec 3e 0f 00 8d ff ff ff   ...].....>......
0020  80 00 00 00 00 00 00 00 00 00 00 00 00 00 00 00   ................
0030  00 00 00 00 00 00 00 00 04 02 00 00 00 00 00 00   ................

Frame 25: 134 bytes on wire (1072 bits), 134 bytes captured (1072 bits)
    Encapsulation type: USB packets with Linux header and padding (115)
    Arrival Time: Nov 15, 2019 09:48:51.999232000 MST
    [Time shift for this packet: 0.000000000 seconds]
    Epoch Time: 1573836531.999232000 seconds
    [Time delta from previous captured frame: 0.000084000 seconds]
    [Time delta from previous displayed frame: 0.000084000 seconds]
    [Time since reference or first frame: 0.234135000 seconds]
    Frame Number: 25
    Frame Length: 134 bytes (1072 bits)
    Capture Length: 134 bytes (1072 bits)
    [Frame is marked: False]
    [Frame is ignored: False]
    [Protocols in frame: usb]
USB URB
    [Source: 2.8.2]
    [Destination: host]
    URB id: 0xffff9dfcbbec3900
    URB type: URB_COMPLETE ('C')
    URB transfer type: URB_BULK (0x03)
    Endpoint: 0x82, Direction: IN
        1... .... = Direction: IN (1)
        .... 0010 = Endpoint number: 2
    Device: 8
    URB bus id: 2
    Device setup request: not relevant ('-')
    Data: present (0)
    URB sec: 1573836531
    URB usec: 999232
    URB status: Success (0)
    URB length [bytes]: 70
    Data length [bytes]: 70
    [bInterfaceClass: Unknown (0xffff)]
    Unused Setup Header
    Interval: 0
    Start frame: 0
    Copy of Transfer Flags: 0x00000204
    Number of ISO descriptors: 0
Leftover Capture Data: 2447504753562c332c312c31312c30382c30392c3332352c...

0000  00 39 ec bb fc 9d ff ff 43 03 82 08 02 00 2d 00   .9......C.....-.
0010  f3 d6 ce 5d 00 00 00 00 40 3f 0f 00 00 00 00 00   ...]....@?......
0020  46 00 00 00 46 00 00 00 00 00 00 00 00 00 00 00   F...F...........
0030  00 00 00 00 00 00 00 00 04 02 00 00 00 00 00 00   ................
0040  24 47 50 47 53 56 2c 33 2c 31 2c 31 31 2c 30 38   $GPGSV,3,1,11,08
0050  2c 30 39 2c 33 32 35 2c 2c 31 30 2c 35 32 2c 32   ,09,325,,10,52,2
0060  38 35 2c 30 39 2c 31 33 2c 30 37 2c 30 33 38 2c   85,09,13,07,038,
0070  31 31 2c 31 35 2c 33 35 2c 30 35 31 2c 31 37 2c   11,15,35,051,17,
0080  31 2a 36 44 0d 0a                                 1*6D..

Frame 26: 64 bytes on wire (512 bits), 64 bytes captured (512 bits)
    Encapsulation type: USB packets with Linux header and padding (115)
    Arrival Time: Nov 15, 2019 09:48:51.999235000 MST
    [Time shift for this packet: 0.000000000 seconds]
    Epoch Time: 1573836531.999235000 seconds
    [Time delta from previous captured frame: 0.000003000 seconds]
    [Time delta from previous displayed frame: 0.000003000 seconds]
    [Time since reference or first frame: 0.234138000 seconds]
    Frame Number: 26
    Frame Length: 64 bytes (512 bits)
    Capture Length: 64 bytes (512 bits)
    [Frame is marked: False]
    [Frame is ignored: False]
    [Protocols in frame: usb]
USB URB
    [Source: host]
    [Destination: 2.8.2]
    URB id: 0xffff9dfcbbec3900
    URB type: URB_SUBMIT ('S')
    URB transfer type: URB_BULK (0x03)
    Endpoint: 0x82, Direction: IN
        1... .... = Direction: IN (1)
        .... 0010 = Endpoint number: 2
    Device: 8
    URB bus id: 2
    Device setup request: not relevant ('-')
    Data: not present ('<')
    URB sec: 1573836531
    URB usec: 999235
    URB status: Operation now in progress (-EINPROGRESS) (-115)
    URB length [bytes]: 128
    Data length [bytes]: 0
    [bInterfaceClass: Unknown (0xffff)]
    Unused Setup Header
    Interval: 0
    Start frame: 0
    Copy of Transfer Flags: 0x00000204
    Number of ISO descriptors: 0

0000  00 39 ec bb fc 9d ff ff 53 03 82 08 02 00 2d 3c   .9......S.....-<
0010  f3 d6 ce 5d 00 00 00 00 43 3f 0f 00 8d ff ff ff   ...]....C?......
0020  80 00 00 00 00 00 00 00 00 00 00 00 00 00 00 00   ................
0030  00 00 00 00 00 00 00 00 04 02 00 00 00 00 00 00   ................

Frame 27: 130 bytes on wire (1040 bits), 130 bytes captured (1040 bits)
    Encapsulation type: USB packets with Linux header and padding (115)
    Arrival Time: Nov 15, 2019 09:48:51.999318000 MST
    [Time shift for this packet: 0.000000000 seconds]
    Epoch Time: 1573836531.999318000 seconds
    [Time delta from previous captured frame: 0.000083000 seconds]
    [Time delta from previous displayed frame: 0.000083000 seconds]
    [Time since reference or first frame: 0.234221000 seconds]
    Frame Number: 27
    Frame Length: 130 bytes (1040 bits)
    Capture Length: 130 bytes (1040 bits)
    [Frame is marked: False]
    [Frame is ignored: False]
    [Protocols in frame: usb]
USB URB
    [Source: 2.8.2]
    [Destination: host]
    URB id: 0xffff9dfcbbec3a80
    URB type: URB_COMPLETE ('C')
    URB transfer type: URB_BULK (0x03)
    Endpoint: 0x82, Direction: IN
        1... .... = Direction: IN (1)
        .... 0010 = Endpoint number: 2
    Device: 8
    URB bus id: 2
    Device setup request: not relevant ('-')
    Data: present (0)
    URB sec: 1573836531
    URB usec: 999318
    URB status: Success (0)
    URB length [bytes]: 66
    Data length [bytes]: 66
    [bInterfaceClass: Unknown (0xffff)]
    Unused Setup Header
    Interval: 0
    Start frame: 0
    Copy of Transfer Flags: 0x00000204
    Number of ISO descriptors: 0
Leftover Capture Data: 2447504753562c332c322c31312c31362c30312c3236302c...

0000  80 3a ec bb fc 9d ff ff 43 03 82 08 02 00 2d 00   .:......C.....-.
0010  f3 d6 ce 5d 00 00 00 00 96 3f 0f 00 00 00 00 00   ...].....?......
0020  42 00 00 00 42 00 00 00 00 00 00 00 00 00 00 00   B...B...........
0030  00 00 00 00 00 00 00 00 04 02 00 00 00 00 00 00   ................
0040  24 47 50 47 53 56 2c 33 2c 32 2c 31 31 2c 31 36   $GPGSV,3,2,11,16
0050  2c 30 31 2c 32 36 30 2c 2c 32 30 2c 37 32 2c 33   ,01,260,,20,72,3
0060  34 31 2c 31 31 2c 32 31 2c 37 37 2c 31 31 37 2c   41,11,21,77,117,
0070  2c 32 34 2c 32 36 2c 31 31 30 2c 2c 31 2a 36 30   ,24,26,110,,1*60
0080  0d 0a                                             ..

Frame 28: 64 bytes on wire (512 bits), 64 bytes captured (512 bits)
    Encapsulation type: USB packets with Linux header and padding (115)
    Arrival Time: Nov 15, 2019 09:48:51.999321000 MST
    [Time shift for this packet: 0.000000000 seconds]
    Epoch Time: 1573836531.999321000 seconds
    [Time delta from previous captured frame: 0.000003000 seconds]
    [Time delta from previous displayed frame: 0.000003000 seconds]
    [Time since reference or first frame: 0.234224000 seconds]
    Frame Number: 28
    Frame Length: 64 bytes (512 bits)
    Capture Length: 64 bytes (512 bits)
    [Frame is marked: False]
    [Frame is ignored: False]
    [Protocols in frame: usb]
USB URB
    [Source: host]
    [Destination: 2.8.2]
    URB id: 0xffff9dfcbbec3a80
    URB type: URB_SUBMIT ('S')
    URB transfer type: URB_BULK (0x03)
    Endpoint: 0x82, Direction: IN
        1... .... = Direction: IN (1)
        .... 0010 = Endpoint number: 2
    Device: 8
    URB bus id: 2
    Device setup request: not relevant ('-')
    Data: not present ('<')
    URB sec: 1573836531
    URB usec: 999321
    URB status: Operation now in progress (-EINPROGRESS) (-115)
    URB length [bytes]: 128
    Data length [bytes]: 0
    [bInterfaceClass: Unknown (0xffff)]
    Unused Setup Header
    Interval: 0
    Start frame: 0
    Copy of Transfer Flags: 0x00000204
    Number of ISO descriptors: 0

0000  80 3a ec bb fc 9d ff ff 53 03 82 08 02 00 2d 3c   .:......S.....-<
0010  f3 d6 ce 5d 00 00 00 00 99 3f 0f 00 8d ff ff ff   ...].....?......
0020  80 00 00 00 00 00 00 00 00 00 00 00 00 00 00 00   ................
0030  00 00 00 00 00 00 00 00 04 02 00 00 00 00 00 00   ................

Frame 29: 121 bytes on wire (968 bits), 121 bytes captured (968 bits)
    Encapsulation type: USB packets with Linux header and padding (115)
    Arrival Time: Nov 15, 2019 09:48:51.999390000 MST
    [Time shift for this packet: 0.000000000 seconds]
    Epoch Time: 1573836531.999390000 seconds
    [Time delta from previous captured frame: 0.000069000 seconds]
    [Time delta from previous displayed frame: 0.000069000 seconds]
    [Time since reference or first frame: 0.234293000 seconds]
    Frame Number: 29
    Frame Length: 121 bytes (968 bits)
    Capture Length: 121 bytes (968 bits)
    [Frame is marked: False]
    [Frame is ignored: False]
    [Protocols in frame: usb]
USB URB
    [Source: 2.8.2]
    [Destination: host]
    URB id: 0xffff9dfcbbec3b40
    URB type: URB_COMPLETE ('C')
    URB transfer type: URB_BULK (0x03)
    Endpoint: 0x82, Direction: IN
        1... .... = Direction: IN (1)
        .... 0010 = Endpoint number: 2
    Device: 8
    URB bus id: 2
    Device setup request: not relevant ('-')
    Data: present (0)
    URB sec: 1573836531
    URB usec: 999390
    URB status: Success (0)
    URB length [bytes]: 57
    Data length [bytes]: 57
    [bInterfaceClass: Unknown (0xffff)]
    Unused Setup Header
    Interval: 0
    Start frame: 0
    Copy of Transfer Flags: 0x00000204
    Number of ISO descriptors: 0
Leftover Capture Data: 2447504753562c332c332c31312c32372c33342c3330302c...

0000  40 3b ec bb fc 9d ff ff 43 03 82 08 02 00 2d 00   @;......C.....-.
0010  f3 d6 ce 5d 00 00 00 00 de 3f 0f 00 00 00 00 00   ...].....?......
0020  39 00 00 00 39 00 00 00 00 00 00 00 00 00 00 00   9...9...........
0030  00 00 00 00 00 00 00 00 04 02 00 00 00 00 00 00   ................
0040  24 47 50 47 53 56 2c 33 2c 33 2c 31 31 2c 32 37   $GPGSV,3,3,11,27
0050  2c 33 34 2c 33 30 30 2c 2c 32 39 2c 30 36 2c 31   ,34,300,,29,06,1
0060  37 31 2c 32 32 2c 33 32 2c 32 33 2c 32 30 39 2c   71,22,32,23,209,
0070  32 32 2c 31 2a 35 34 0d 0a                        22,1*54..

Frame 30: 64 bytes on wire (512 bits), 64 bytes captured (512 bits)
    Encapsulation type: USB packets with Linux header and padding (115)
    Arrival Time: Nov 15, 2019 09:48:51.999392000 MST
    [Time shift for this packet: 0.000000000 seconds]
    Epoch Time: 1573836531.999392000 seconds
    [Time delta from previous captured frame: 0.000002000 seconds]
    [Time delta from previous displayed frame: 0.000002000 seconds]
    [Time since reference or first frame: 0.234295000 seconds]
    Frame Number: 30
    Frame Length: 64 bytes (512 bits)
    Capture Length: 64 bytes (512 bits)
    [Frame is marked: False]
    [Frame is ignored: False]
    [Protocols in frame: usb]
USB URB
    [Source: host]
    [Destination: 2.8.2]
    URB id: 0xffff9dfcbbec3b40
    URB type: URB_SUBMIT ('S')
    URB transfer type: URB_BULK (0x03)
    Endpoint: 0x82, Direction: IN
        1... .... = Direction: IN (1)
        .... 0010 = Endpoint number: 2
    Device: 8
    URB bus id: 2
    Device setup request: not relevant ('-')
    Data: not present ('<')
    URB sec: 1573836531
    URB usec: 999392
    URB status: Operation now in progress (-EINPROGRESS) (-115)
    URB length [bytes]: 128
    Data length [bytes]: 0
    [bInterfaceClass: Unknown (0xffff)]
    Unused Setup Header
    Interval: 0
    Start frame: 0
    Copy of Transfer Flags: 0x00000204
    Number of ISO descriptors: 0

0000  40 3b ec bb fc 9d ff ff 53 03 82 08 02 00 2d 3c   @;......S.....-<
0010  f3 d6 ce 5d 00 00 00 00 e0 3f 0f 00 8d ff ff ff   ...].....?......
0020  80 00 00 00 00 00 00 00 00 00 00 00 00 00 00 00   ................
0030  00 00 00 00 00 00 00 00 04 02 00 00 00 00 00 00   ................

Frame 31: 64 bytes on wire (512 bits), 64 bytes captured (512 bits)
    Encapsulation type: USB packets with Linux header and padding (115)
    Arrival Time: Nov 15, 2019 09:48:51.999502000 MST
    [Time shift for this packet: 0.000000000 seconds]
    Epoch Time: 1573836531.999502000 seconds
    [Time delta from previous captured frame: 0.000110000 seconds]
    [Time delta from previous displayed frame: 0.000110000 seconds]
    [Time since reference or first frame: 0.234405000 seconds]
    Frame Number: 31
    Frame Length: 64 bytes (512 bits)
    Capture Length: 64 bytes (512 bits)
    [Frame is marked: False]
    [Frame is ignored: False]
    [Protocols in frame: usb]
USB URB
    [Source: 2.8.2]
    [Destination: host]
    URB id: 0xffff9dfcbbec3780
    URB type: URB_COMPLETE ('C')
    URB transfer type: URB_BULK (0x03)
    Endpoint: 0x82, Direction: IN
        1... .... = Direction: IN (1)
        .... 0010 = Endpoint number: 2
    Device: 8
    URB bus id: 2
    Device setup request: not relevant ('-')
    Data: present (0)
    URB sec: 1573836531
    URB usec: 999502
    URB status: Success (0)
    URB length [bytes]: 0
    Data length [bytes]: 0
    [bInterfaceClass: Unknown (0xffff)]
    Unused Setup Header
    Interval: 0
    Start frame: 0
    Copy of Transfer Flags: 0x00000204
    Number of ISO descriptors: 0

0000  80 37 ec bb fc 9d ff ff 43 03 82 08 02 00 2d 00   .7......C.....-.
0010  f3 d6 ce 5d 00 00 00 00 4e 40 0f 00 00 00 00 00   ...]....N@......
0020  00 00 00 00 00 00 00 00 00 00 00 00 00 00 00 00   ................
0030  00 00 00 00 00 00 00 00 04 02 00 00 00 00 00 00   ................

Frame 32: 64 bytes on wire (512 bits), 64 bytes captured (512 bits)
    Encapsulation type: USB packets with Linux header and padding (115)
    Arrival Time: Nov 15, 2019 09:48:51.999504000 MST
    [Time shift for this packet: 0.000000000 seconds]
    Epoch Time: 1573836531.999504000 seconds
    [Time delta from previous captured frame: 0.000002000 seconds]
    [Time delta from previous displayed frame: 0.000002000 seconds]
    [Time since reference or first frame: 0.234407000 seconds]
    Frame Number: 32
    Frame Length: 64 bytes (512 bits)
    Capture Length: 64 bytes (512 bits)
    [Frame is marked: False]
    [Frame is ignored: False]
    [Protocols in frame: usb]
USB URB
    [Source: host]
    [Destination: 2.8.2]
    URB id: 0xffff9dfcbbec3780
    URB type: URB_SUBMIT ('S')
    URB transfer type: URB_BULK (0x03)
    Endpoint: 0x82, Direction: IN
        1... .... = Direction: IN (1)
        .... 0010 = Endpoint number: 2
    Device: 8
    URB bus id: 2
    Device setup request: not relevant ('-')
    Data: not present ('<')
    URB sec: 1573836531
    URB usec: 999504
    URB status: Operation now in progress (-EINPROGRESS) (-115)
    URB length [bytes]: 128
    Data length [bytes]: 0
    [bInterfaceClass: Unknown (0xffff)]
    Unused Setup Header
    Interval: 0
    Start frame: 0
    Copy of Transfer Flags: 0x00000204
    Number of ISO descriptors: 0

0000  80 37 ec bb fc 9d ff ff 53 03 82 08 02 00 2d 3c   .7......S.....-<
0010  f3 d6 ce 5d 00 00 00 00 50 40 0f 00 8d ff ff ff   ...]....P@......
0020  80 00 00 00 00 00 00 00 00 00 00 00 00 00 00 00   ................
0030  00 00 00 00 00 00 00 00 04 02 00 00 00 00 00 00   ................

Frame 33: 134 bytes on wire (1072 bits), 134 bytes captured (1072 bits)
    Encapsulation type: USB packets with Linux header and padding (115)
    Arrival Time: Nov 15, 2019 09:48:51.999591000 MST
    [Time shift for this packet: 0.000000000 seconds]
    Epoch Time: 1573836531.999591000 seconds
    [Time delta from previous captured frame: 0.000087000 seconds]
    [Time delta from previous displayed frame: 0.000087000 seconds]
    [Time since reference or first frame: 0.234494000 seconds]
    Frame Number: 33
    Frame Length: 134 bytes (1072 bits)
    Capture Length: 134 bytes (1072 bits)
    [Frame is marked: False]
    [Frame is ignored: False]
    [Protocols in frame: usb]
USB URB
    [Source: 2.8.2]
    [Destination: host]
    URB id: 0xffff9dfcbbec39c0
    URB type: URB_COMPLETE ('C')
    URB transfer type: URB_BULK (0x03)
    Endpoint: 0x82, Direction: IN
        1... .... = Direction: IN (1)
        .... 0010 = Endpoint number: 2
    Device: 8
    URB bus id: 2
    Device setup request: not relevant ('-')
    Data: present (0)
    URB sec: 1573836531
    URB usec: 999591
    URB status: Success (0)
    URB length [bytes]: 70
    Data length [bytes]: 70
    [bInterfaceClass: Unknown (0xffff)]
    Unused Setup Header
    Interval: 0
    Start frame: 0
    Copy of Transfer Flags: 0x00000204
    Number of ISO descriptors: 0
Leftover Capture Data: 2447504753562c332c312c31312c30382c30392c3332352c...

0000  c0 39 ec bb fc 9d ff ff 43 03 82 08 02 00 2d 00   .9......C.....-.
0010  f3 d6 ce 5d 00 00 00 00 a7 40 0f 00 00 00 00 00   ...].....@......
0020  46 00 00 00 46 00 00 00 00 00 00 00 00 00 00 00   F...F...........
0030  00 00 00 00 00 00 00 00 04 02 00 00 00 00 00 00   ................
0040  24 47 50 47 53 56 2c 33 2c 31 2c 31 31 2c 30 38   $GPGSV,3,1,11,08
0050  2c 30 39 2c 33 32 35 2c 31 37 2c 31 30 2c 35 32   ,09,325,17,10,52
0060  2c 32 38 35 2c 33 34 2c 31 33 2c 30 37 2c 30 33   ,285,34,13,07,03
0070  38 2c 2c 31 35 2c 33 35 2c 30 35 31 2c 32 35 2c   8,,15,35,051,25,
0080  36 2a 36 33 0d 0a                                 6*63..

Frame 34: 64 bytes on wire (512 bits), 64 bytes captured (512 bits)
    Encapsulation type: USB packets with Linux header and padding (115)
    Arrival Time: Nov 15, 2019 09:48:51.999593000 MST
    [Time shift for this packet: 0.000000000 seconds]
    Epoch Time: 1573836531.999593000 seconds
    [Time delta from previous captured frame: 0.000002000 seconds]
    [Time delta from previous displayed frame: 0.000002000 seconds]
    [Time since reference or first frame: 0.234496000 seconds]
    Frame Number: 34
    Frame Length: 64 bytes (512 bits)
    Capture Length: 64 bytes (512 bits)
    [Frame is marked: False]
    [Frame is ignored: False]
    [Protocols in frame: usb]
USB URB
    [Source: host]
    [Destination: 2.8.2]
    URB id: 0xffff9dfcbbec39c0
    URB type: URB_SUBMIT ('S')
    URB transfer type: URB_BULK (0x03)
    Endpoint: 0x82, Direction: IN
        1... .... = Direction: IN (1)
        .... 0010 = Endpoint number: 2
    Device: 8
    URB bus id: 2
    Device setup request: not relevant ('-')
    Data: not present ('<')
    URB sec: 1573836531
    URB usec: 999593
    URB status: Operation now in progress (-EINPROGRESS) (-115)
    URB length [bytes]: 128
    Data length [bytes]: 0
    [bInterfaceClass: Unknown (0xffff)]
    Unused Setup Header
    Interval: 0
    Start frame: 0
    Copy of Transfer Flags: 0x00000204
    Number of ISO descriptors: 0

0000  c0 39 ec bb fc 9d ff ff 53 03 82 08 02 00 2d 3c   .9......S.....-<
0010  f3 d6 ce 5d 00 00 00 00 a9 40 0f 00 8d ff ff ff   ...].....@......
0020  80 00 00 00 00 00 00 00 00 00 00 00 00 00 00 00   ................
0030  00 00 00 00 00 00 00 00 04 02 00 00 00 00 00 00   ................

Frame 35: 130 bytes on wire (1040 bits), 130 bytes captured (1040 bits)
    Encapsulation type: USB packets with Linux header and padding (115)
    Arrival Time: Nov 15, 2019 09:48:51.999680000 MST
    [Time shift for this packet: 0.000000000 seconds]
    Epoch Time: 1573836531.999680000 seconds
    [Time delta from previous captured frame: 0.000087000 seconds]
    [Time delta from previous displayed frame: 0.000087000 seconds]
    [Time since reference or first frame: 0.234583000 seconds]
    Frame Number: 35
    Frame Length: 130 bytes (1040 bits)
    Capture Length: 130 bytes (1040 bits)
    [Frame is marked: False]
    [Frame is ignored: False]
    [Protocols in frame: usb]
USB URB
    [Source: 2.8.2]
    [Destination: host]
    URB id: 0xffff9dfcbe45c780
    URB type: URB_COMPLETE ('C')
    URB transfer type: URB_BULK (0x03)
    Endpoint: 0x82, Direction: IN
        1... .... = Direction: IN (1)
        .... 0010 = Endpoint number: 2
    Device: 8
    URB bus id: 2
    Device setup request: not relevant ('-')
    Data: present (0)
    URB sec: 1573836531
    URB usec: 999680
    URB status: Success (0)
    URB length [bytes]: 66
    Data length [bytes]: 66
    [bInterfaceClass: Unknown (0xffff)]
    Unused Setup Header
    Interval: 0
    Start frame: 0
    Copy of Transfer Flags: 0x00000204
    Number of ISO descriptors: 0
Leftover Capture Data: 2447504753562c332c322c31312c31362c30312c3236302c...

0000  80 c7 45 be fc 9d ff ff 43 03 82 08 02 00 2d 00   ..E.....C.....-.
0010  f3 d6 ce 5d 00 00 00 00 00 41 0f 00 00 00 00 00   ...].....A......
0020  42 00 00 00 42 00 00 00 00 00 00 00 00 00 00 00   B...B...........
0030  00 00 00 00 00 00 00 00 04 02 00 00 00 00 00 00   ................
0040  24 47 50 47 53 56 2c 33 2c 32 2c 31 31 2c 31 36   $GPGSV,3,2,11,16
0050  2c 30 31 2c 32 36 30 2c 2c 32 30 2c 37 32 2c 33   ,01,260,,20,72,3
0060  34 31 2c 2c 32 31 2c 37 37 2c 31 31 37 2c 2c 32   41,,21,77,117,,2
0070  34 2c 32 36 2c 31 31 30 2c 32 39 2c 36 2a 36 43   4,26,110,29,6*6C
0080  0d 0a                                             ..

Frame 36: 64 bytes on wire (512 bits), 64 bytes captured (512 bits)
    Encapsulation type: USB packets with Linux header and padding (115)
    Arrival Time: Nov 15, 2019 09:48:51.999682000 MST
    [Time shift for this packet: 0.000000000 seconds]
    Epoch Time: 1573836531.999682000 seconds
    [Time delta from previous captured frame: 0.000002000 seconds]
    [Time delta from previous displayed frame: 0.000002000 seconds]
    [Time since reference or first frame: 0.234585000 seconds]
    Frame Number: 36
    Frame Length: 64 bytes (512 bits)
    Capture Length: 64 bytes (512 bits)
    [Frame is marked: False]
    [Frame is ignored: False]
    [Protocols in frame: usb]
USB URB
    [Source: host]
    [Destination: 2.8.2]
    URB id: 0xffff9dfcbe45c780
    URB type: URB_SUBMIT ('S')
    URB transfer type: URB_BULK (0x03)
    Endpoint: 0x82, Direction: IN
        1... .... = Direction: IN (1)
        .... 0010 = Endpoint number: 2
    Device: 8
    URB bus id: 2
    Device setup request: not relevant ('-')
    Data: not present ('<')
    URB sec: 1573836531
    URB usec: 999682
    URB status: Operation now in progress (-EINPROGRESS) (-115)
    URB length [bytes]: 128
    Data length [bytes]: 0
    [bInterfaceClass: Unknown (0xffff)]
    Unused Setup Header
    Interval: 0
    Start frame: 0
    Copy of Transfer Flags: 0x00000204
    Number of ISO descriptors: 0

0000  80 c7 45 be fc 9d ff ff 53 03 82 08 02 00 2d 3c   ..E.....S.....-<
0010  f3 d6 ce 5d 00 00 00 00 02 41 0f 00 8d ff ff ff   ...].....A......
0020  80 00 00 00 00 00 00 00 00 00 00 00 00 00 00 00   ................
0030  00 00 00 00 00 00 00 00 04 02 00 00 00 00 00 00   ................

Frame 37: 121 bytes on wire (968 bits), 121 bytes captured (968 bits)
    Encapsulation type: USB packets with Linux header and padding (115)
    Arrival Time: Nov 15, 2019 09:48:51.999803000 MST
    [Time shift for this packet: 0.000000000 seconds]
    Epoch Time: 1573836531.999803000 seconds
    [Time delta from previous captured frame: 0.000121000 seconds]
    [Time delta from previous displayed frame: 0.000121000 seconds]
    [Time since reference or first frame: 0.234706000 seconds]
    Frame Number: 37
    Frame Length: 121 bytes (968 bits)
    Capture Length: 121 bytes (968 bits)
    [Frame is marked: False]
    [Frame is ignored: False]
    [Protocols in frame: usb]
USB URB
    [Source: 2.8.2]
    [Destination: host]
    URB id: 0xffff9dfcc08cc240
    URB type: URB_COMPLETE ('C')
    URB transfer type: URB_BULK (0x03)
    Endpoint: 0x82, Direction: IN
        1... .... = Direction: IN (1)
        .... 0010 = Endpoint number: 2
    Device: 8
    URB bus id: 2
    Device setup request: not relevant ('-')
    Data: present (0)
    URB sec: 1573836531
    URB usec: 999803
    URB status: Success (0)
    URB length [bytes]: 57
    Data length [bytes]: 57
    [bInterfaceClass: Unknown (0xffff)]
    Unused Setup Header
    Interval: 0
    Start frame: 0
    Copy of Transfer Flags: 0x00000204
    Number of ISO descriptors: 0
Leftover Capture Data: 2447504753562c332c332c31312c32372c33342c3330302c...

0000  40 c2 8c c0 fc 9d ff ff 43 03 82 08 02 00 2d 00   @.......C.....-.
0010  f3 d6 ce 5d 00 00 00 00 7b 41 0f 00 00 00 00 00   ...]....{A......
0020  39 00 00 00 39 00 00 00 00 00 00 00 00 00 00 00   9...9...........
0030  00 00 00 00 00 00 00 00 04 02 00 00 00 00 00 00   ................
0040  24 47 50 47 53 56 2c 33 2c 33 2c 31 31 2c 32 37   $GPGSV,3,3,11,27
0050  2c 33 34 2c 33 30 30 2c 2c 32 39 2c 30 36 2c 31   ,34,300,,29,06,1
0060  37 31 2c 32 38 2c 33 32 2c 32 33 2c 32 30 39 2c   71,28,32,23,209,
0070  33 38 2c 36 2a 35 32 0d 0a                        38,6*52..

Frame 38: 64 bytes on wire (512 bits), 64 bytes captured (512 bits)
    Encapsulation type: USB packets with Linux header and padding (115)
    Arrival Time: Nov 15, 2019 09:48:51.999806000 MST
    [Time shift for this packet: 0.000000000 seconds]
    Epoch Time: 1573836531.999806000 seconds
    [Time delta from previous captured frame: 0.000003000 seconds]
    [Time delta from previous displayed frame: 0.000003000 seconds]
    [Time since reference or first frame: 0.234709000 seconds]
    Frame Number: 38
    Frame Length: 64 bytes (512 bits)
    Capture Length: 64 bytes (512 bits)
    [Frame is marked: False]
    [Frame is ignored: False]
    [Protocols in frame: usb]
USB URB
    [Source: host]
    [Destination: 2.8.2]
    URB id: 0xffff9dfcc08cc240
    URB type: URB_SUBMIT ('S')
    URB transfer type: URB_BULK (0x03)
    Endpoint: 0x82, Direction: IN
        1... .... = Direction: IN (1)
        .... 0010 = Endpoint number: 2
    Device: 8
    URB bus id: 2
    Device setup request: not relevant ('-')
    Data: not present ('<')
    URB sec: 1573836531
    URB usec: 999806
    URB status: Operation now in progress (-EINPROGRESS) (-115)
    URB length [bytes]: 128
    Data length [bytes]: 0
    [bInterfaceClass: Unknown (0xffff)]
    Unused Setup Header
    Interval: 0
    Start frame: 0
    Copy of Transfer Flags: 0x00000204
    Number of ISO descriptors: 0

0000  40 c2 8c c0 fc 9d ff ff 53 03 82 08 02 00 2d 3c   @.......S.....-<
0010  f3 d6 ce 5d 00 00 00 00 7e 41 0f 00 8d ff ff ff   ...]....~A......
0020  80 00 00 00 00 00 00 00 00 00 00 00 00 00 00 00   ................
0030  00 00 00 00 00 00 00 00 04 02 00 00 00 00 00 00   ................

Frame 39: 64 bytes on wire (512 bits), 64 bytes captured (512 bits)
    Encapsulation type: USB packets with Linux header and padding (115)
    Arrival Time: Nov 15, 2019 09:48:52.000108000 MST
    [Time shift for this packet: 0.000000000 seconds]
    Epoch Time: 1573836532.000108000 seconds
    [Time delta from previous captured frame: 0.000302000 seconds]
    [Time delta from previous displayed frame: 0.000302000 seconds]
    [Time since reference or first frame: 0.235011000 seconds]
    Frame Number: 39
    Frame Length: 64 bytes (512 bits)
    Capture Length: 64 bytes (512 bits)
    [Frame is marked: False]
    [Frame is ignored: False]
    [Protocols in frame: usb]
USB URB
    [Source: 2.8.2]
    [Destination: host]
    URB id: 0xffff9dfcc08ccd80
    URB type: URB_COMPLETE ('C')
    URB transfer type: URB_BULK (0x03)
    Endpoint: 0x82, Direction: IN
        1... .... = Direction: IN (1)
        .... 0010 = Endpoint number: 2
    Device: 8
    URB bus id: 2
    Device setup request: not relevant ('-')
    Data: present (0)
    URB sec: 1573836532
    URB usec: 108
    URB status: Success (0)
    URB length [bytes]: 0
    Data length [bytes]: 0
    [Request in: 8]
    [Time from request: 0.001621000 seconds]
    [bInterfaceClass: Unknown (0xffff)]
    Unused Setup Header
    Interval: 0
    Start frame: 0
    Copy of Transfer Flags: 0x00000204
    Number of ISO descriptors: 0

0000  80 cd 8c c0 fc 9d ff ff 43 03 82 08 02 00 2d 00   ........C.....-.
0010  f4 d6 ce 5d 00 00 00 00 6c 00 00 00 00 00 00 00   ...]....l.......
0020  00 00 00 00 00 00 00 00 00 00 00 00 00 00 00 00   ................
0030  00 00 00 00 00 00 00 00 04 02 00 00 00 00 00 00   ................

Frame 40: 64 bytes on wire (512 bits), 64 bytes captured (512 bits)
    Encapsulation type: USB packets with Linux header and padding (115)
    Arrival Time: Nov 15, 2019 09:48:52.000110000 MST
    [Time shift for this packet: 0.000000000 seconds]
    Epoch Time: 1573836532.000110000 seconds
    [Time delta from previous captured frame: 0.000002000 seconds]
    [Time delta from previous displayed frame: 0.000002000 seconds]
    [Time since reference or first frame: 0.235013000 seconds]
    Frame Number: 40
    Frame Length: 64 bytes (512 bits)
    Capture Length: 64 bytes (512 bits)
    [Frame is marked: False]
    [Frame is ignored: False]
    [Protocols in frame: usb]
USB URB
    [Source: host]
    [Destination: 2.8.2]
    URB id: 0xffff9dfcc08ccd80
    URB type: URB_SUBMIT ('S')
    URB transfer type: URB_BULK (0x03)
    Endpoint: 0x82, Direction: IN
        1... .... = Direction: IN (1)
        .... 0010 = Endpoint number: 2
    Device: 8
    URB bus id: 2
    Device setup request: not relevant ('-')
    Data: not present ('<')
    URB sec: 1573836532
    URB usec: 110
    URB status: Operation now in progress (-EINPROGRESS) (-115)
    URB length [bytes]: 128
    Data length [bytes]: 0
    [bInterfaceClass: Unknown (0xffff)]
    Unused Setup Header
    Interval: 0
    Start frame: 0
    Copy of Transfer Flags: 0x00000204
    Number of ISO descriptors: 0

0000  80 cd 8c c0 fc 9d ff ff 53 03 82 08 02 00 2d 3c   ........S.....-<
0010  f4 d6 ce 5d 00 00 00 00 6e 00 00 00 8d ff ff ff   ...]....n.......
0020  80 00 00 00 00 00 00 00 00 00 00 00 00 00 00 00   ................
0030  00 00 00 00 00 00 00 00 04 02 00 00 00 00 00 00   ................

Frame 41: 127 bytes on wire (1016 bits), 127 bytes captured (1016 bits)
    Encapsulation type: USB packets with Linux header and padding (115)
    Arrival Time: Nov 15, 2019 09:48:52.000184000 MST
    [Time shift for this packet: 0.000000000 seconds]
    Epoch Time: 1573836532.000184000 seconds
    [Time delta from previous captured frame: 0.000074000 seconds]
    [Time delta from previous displayed frame: 0.000074000 seconds]
    [Time since reference or first frame: 0.235087000 seconds]
    Frame Number: 41
    Frame Length: 127 bytes (1016 bits)
    Capture Length: 127 bytes (1016 bits)
    [Frame is marked: False]
    [Frame is ignored: False]
    [Protocols in frame: usb]
USB URB
    [Source: 2.8.2]
    [Destination: host]
    URB id: 0xffff9dfcc08cc540
    URB type: URB_COMPLETE ('C')
    URB transfer type: URB_BULK (0x03)
    Endpoint: 0x82, Direction: IN
        1... .... = Direction: IN (1)
        .... 0010 = Endpoint number: 2
    Device: 8
    URB bus id: 2
    Device setup request: not relevant ('-')
    Data: present (0)
    URB sec: 1573836532
    URB usec: 184
    URB status: Success (0)
    URB length [bytes]: 63
    Data length [bytes]: 63
    [Request in: 10]
    [Time from request: 0.001668000 seconds]
    [bInterfaceClass: Unknown (0xffff)]
    Unused Setup Header
    Interval: 0
    Start frame: 0
    Copy of Transfer Flags: 0x00000204
    Number of ISO descriptors: 0
Leftover Capture Data: 24474c4753562c322c312c30382c36372c31342c3034332c...

0000  40 c5 8c c0 fc 9d ff ff 43 03 82 08 02 00 2d 00   @.......C.....-.
0010  f4 d6 ce 5d 00 00 00 00 b8 00 00 00 00 00 00 00   ...]............
0020  3f 00 00 00 3f 00 00 00 00 00 00 00 00 00 00 00   ?...?...........
0030  00 00 00 00 00 00 00 00 04 02 00 00 00 00 00 00   ................
0040  24 47 4c 47 53 56 2c 32 2c 31 2c 30 38 2c 36 37   $GLGSV,2,1,08,67
0050  2c 31 34 2c 30 34 33 2c 2c 36 38 2c 36 33 2c 30   ,14,043,,68,63,0
0060  31 30 2c 2c 36 39 2c 35 31 2c 32 35 35 2c 2c 37   10,,69,51,255,,7
0070  36 2c 30 31 2c 30 30 38 2c 2c 2a 34 41 0d 0a      6,01,008,,*4A..

Frame 42: 64 bytes on wire (512 bits), 64 bytes captured (512 bits)
    Encapsulation type: USB packets with Linux header and padding (115)
    Arrival Time: Nov 15, 2019 09:48:52.000187000 MST
    [Time shift for this packet: 0.000000000 seconds]
    Epoch Time: 1573836532.000187000 seconds
    [Time delta from previous captured frame: 0.000003000 seconds]
    [Time delta from previous displayed frame: 0.000003000 seconds]
    [Time since reference or first frame: 0.235090000 seconds]
    Frame Number: 42
    Frame Length: 64 bytes (512 bits)
    Capture Length: 64 bytes (512 bits)
    [Frame is marked: False]
    [Frame is ignored: False]
    [Protocols in frame: usb]
USB URB
    [Source: host]
    [Destination: 2.8.2]
    URB id: 0xffff9dfcc08cc540
    URB type: URB_SUBMIT ('S')
    URB transfer type: URB_BULK (0x03)
    Endpoint: 0x82, Direction: IN
        1... .... = Direction: IN (1)
        .... 0010 = Endpoint number: 2
    Device: 8
    URB bus id: 2
    Device setup request: not relevant ('-')
    Data: not present ('<')
    URB sec: 1573836532
    URB usec: 187
    URB status: Operation now in progress (-EINPROGRESS) (-115)
    URB length [bytes]: 128
    Data length [bytes]: 0
    [bInterfaceClass: Unknown (0xffff)]
    Unused Setup Header
    Interval: 0
    Start frame: 0
    Copy of Transfer Flags: 0x00000204
    Number of ISO descriptors: 0

0000  40 c5 8c c0 fc 9d ff ff 53 03 82 08 02 00 2d 3c   @.......S.....-<
0010  f4 d6 ce 5d 00 00 00 00 bb 00 00 00 8d ff ff ff   ...]............
0020  80 00 00 00 00 00 00 00 00 00 00 00 00 00 00 00   ................
0030  00 00 00 00 00 00 00 00 04 02 00 00 00 00 00 00   ................

Frame 43: 127 bytes on wire (1016 bits), 127 bytes captured (1016 bits)
    Encapsulation type: USB packets with Linux header and padding (115)
    Arrival Time: Nov 15, 2019 09:48:52.000260000 MST
    [Time shift for this packet: 0.000000000 seconds]
    Epoch Time: 1573836532.000260000 seconds
    [Time delta from previous captured frame: 0.000073000 seconds]
    [Time delta from previous displayed frame: 0.000073000 seconds]
    [Time since reference or first frame: 0.235163000 seconds]
    Frame Number: 43
    Frame Length: 127 bytes (1016 bits)
    Capture Length: 127 bytes (1016 bits)
    [Frame is marked: False]
    [Frame is ignored: False]
    [Protocols in frame: usb]
USB URB
    [Source: 2.8.2]
    [Destination: host]
    URB id: 0xffff9dfcc08cc780
    URB type: URB_COMPLETE ('C')
    URB transfer type: URB_BULK (0x03)
    Endpoint: 0x82, Direction: IN
        1... .... = Direction: IN (1)
        .... 0010 = Endpoint number: 2
    Device: 8
    URB bus id: 2
    Device setup request: not relevant ('-')
    Data: present (0)
    URB sec: 1573836532
    URB usec: 260
    URB status: Success (0)
    URB length [bytes]: 63
    Data length [bytes]: 63
    [Request in: 12]
    [Time from request: 0.001606000 seconds]
    [bInterfaceClass: Unknown (0xffff)]
    Unused Setup Header
    Interval: 0
    Start frame: 0
    Copy of Transfer Flags: 0x00000204
    Number of ISO descriptors: 0
Leftover Capture Data: 24474c4753562c322c322c30382c37372c30362c3035362c...

0000  80 c7 8c c0 fc 9d ff ff 43 03 82 08 02 00 2d 00   ........C.....-.
0010  f4 d6 ce 5d 00 00 00 00 04 01 00 00 00 00 00 00   ...]............
0020  3f 00 00 00 3f 00 00 00 00 00 00 00 00 00 00 00   ?...?...........
0030  00 00 00 00 00 00 00 00 04 02 00 00 00 00 00 00   ................
0040  24 47 4c 47 53 56 2c 32 2c 32 2c 30 38 2c 37 37   $GLGSV,2,2,08,77
0050  2c 30 36 2c 30 35 36 2c 2c 38 32 2c 31 36 2c 31   ,06,056,,82,16,1
0060  35 36 2c 2c 38 33 2c 36 35 2c 31 36 36 2c 2c 38   56,,83,65,166,,8
0070  34 2c 34 39 2c 33 32 35 2c 2c 2a 34 37 0d 0a      4,49,325,,*47..

Frame 44: 64 bytes on wire (512 bits), 64 bytes captured (512 bits)
    Encapsulation type: USB packets with Linux header and padding (115)
    Arrival Time: Nov 15, 2019 09:48:52.000263000 MST
    [Time shift for this packet: 0.000000000 seconds]
    Epoch Time: 1573836532.000263000 seconds
    [Time delta from previous captured frame: 0.000003000 seconds]
    [Time delta from previous displayed frame: 0.000003000 seconds]
    [Time since reference or first frame: 0.235166000 seconds]
    Frame Number: 44
    Frame Length: 64 bytes (512 bits)
    Capture Length: 64 bytes (512 bits)
    [Frame is marked: False]
    [Frame is ignored: False]
    [Protocols in frame: usb]
USB URB
    [Source: host]
    [Destination: 2.8.2]
    URB id: 0xffff9dfcc08cc780
    URB type: URB_SUBMIT ('S')
    URB transfer type: URB_BULK (0x03)
    Endpoint: 0x82, Direction: IN
        1... .... = Direction: IN (1)
        .... 0010 = Endpoint number: 2
    Device: 8
    URB bus id: 2
    Device setup request: not relevant ('-')
    Data: not present ('<')
    URB sec: 1573836532
    URB usec: 263
    URB status: Operation now in progress (-EINPROGRESS) (-115)
    URB length [bytes]: 128
    Data length [bytes]: 0
    [bInterfaceClass: Unknown (0xffff)]
    Unused Setup Header
    Interval: 0
    Start frame: 0
    Copy of Transfer Flags: 0x00000204
    Number of ISO descriptors: 0

0000  80 c7 8c c0 fc 9d ff ff 53 03 82 08 02 00 2d 3c   ........S.....-<
0010  f4 d6 ce 5d 00 00 00 00 07 01 00 00 8d ff ff ff   ...]............
0020  80 00 00 00 00 00 00 00 00 00 00 00 00 00 00 00   ................
0030  00 00 00 00 00 00 00 00 04 02 00 00 00 00 00 00   ................

Frame 45: 64 bytes on wire (512 bits), 64 bytes captured (512 bits)
    Encapsulation type: USB packets with Linux header and padding (115)
    Arrival Time: Nov 15, 2019 09:48:52.000372000 MST
    [Time shift for this packet: 0.000000000 seconds]
    Epoch Time: 1573836532.000372000 seconds
    [Time delta from previous captured frame: 0.000109000 seconds]
    [Time delta from previous displayed frame: 0.000109000 seconds]
    [Time since reference or first frame: 0.235275000 seconds]
    Frame Number: 45
    Frame Length: 64 bytes (512 bits)
    Capture Length: 64 bytes (512 bits)
    [Frame is marked: False]
    [Frame is ignored: False]
    [Protocols in frame: usb]
USB URB
    [Source: 2.8.2]
    [Destination: host]
    URB id: 0xffff9dfcc08cc3c0
    URB type: URB_COMPLETE ('C')
    URB transfer type: URB_BULK (0x03)
    Endpoint: 0x82, Direction: IN
        1... .... = Direction: IN (1)
        .... 0010 = Endpoint number: 2
    Device: 8
    URB bus id: 2
    Device setup request: not relevant ('-')
    Data: present (0)
    URB sec: 1573836532
    URB usec: 372
    URB status: Success (0)
    URB length [bytes]: 0
    Data length [bytes]: 0
    [Request in: 14]
    [Time from request: 0.001686000 seconds]
    [bInterfaceClass: Unknown (0xffff)]
    Unused Setup Header
    Interval: 0
    Start frame: 0
    Copy of Transfer Flags: 0x00000204
    Number of ISO descriptors: 0

0000  c0 c3 8c c0 fc 9d ff ff 43 03 82 08 02 00 2d 00   ........C.....-.
0010  f4 d6 ce 5d 00 00 00 00 74 01 00 00 00 00 00 00   ...]....t.......
0020  00 00 00 00 00 00 00 00 00 00 00 00 00 00 00 00   ................
0030  00 00 00 00 00 00 00 00 04 02 00 00 00 00 00 00   ................

Frame 46: 64 bytes on wire (512 bits), 64 bytes captured (512 bits)
    Encapsulation type: USB packets with Linux header and padding (115)
    Arrival Time: Nov 15, 2019 09:48:52.000373000 MST
    [Time shift for this packet: 0.000000000 seconds]
    Epoch Time: 1573836532.000373000 seconds
    [Time delta from previous captured frame: 0.000001000 seconds]
    [Time delta from previous displayed frame: 0.000001000 seconds]
    [Time since reference or first frame: 0.235276000 seconds]
    Frame Number: 46
    Frame Length: 64 bytes (512 bits)
    Capture Length: 64 bytes (512 bits)
    [Frame is marked: False]
    [Frame is ignored: False]
    [Protocols in frame: usb]
USB URB
    [Source: host]
    [Destination: 2.8.2]
    URB id: 0xffff9dfcc08cc3c0
    URB type: URB_SUBMIT ('S')
    URB transfer type: URB_BULK (0x03)
    Endpoint: 0x82, Direction: IN
        1... .... = Direction: IN (1)
        .... 0010 = Endpoint number: 2
    Device: 8
    URB bus id: 2
    Device setup request: not relevant ('-')
    Data: not present ('<')
    URB sec: 1573836532
    URB usec: 373
    URB status: Operation now in progress (-EINPROGRESS) (-115)
    URB length [bytes]: 128
    Data length [bytes]: 0
    [bInterfaceClass: Unknown (0xffff)]
    Unused Setup Header
    Interval: 0
    Start frame: 0
    Copy of Transfer Flags: 0x00000204
    Number of ISO descriptors: 0

0000  c0 c3 8c c0 fc 9d ff ff 53 03 82 08 02 00 2d 3c   ........S.....-<
0010  f4 d6 ce 5d 00 00 00 00 75 01 00 00 8d ff ff ff   ...]....u.......
0020  80 00 00 00 00 00 00 00 00 00 00 00 00 00 00 00   ................
0030  00 00 00 00 00 00 00 00 04 02 00 00 00 00 00 00   ................

Frame 47: 132 bytes on wire (1056 bits), 132 bytes captured (1056 bits)
    Encapsulation type: USB packets with Linux header and padding (115)
    Arrival Time: Nov 15, 2019 09:48:52.000461000 MST
    [Time shift for this packet: 0.000000000 seconds]
    Epoch Time: 1573836532.000461000 seconds
    [Time delta from previous captured frame: 0.000088000 seconds]
    [Time delta from previous displayed frame: 0.000088000 seconds]
    [Time since reference or first frame: 0.235364000 seconds]
    Frame Number: 47
    Frame Length: 132 bytes (1056 bits)
    Capture Length: 132 bytes (1056 bits)
    [Frame is marked: False]
    [Frame is ignored: False]
    [Protocols in frame: usb]
USB URB
    [Source: 2.8.2]
    [Destination: host]
    URB id: 0xffff9dfcbbec3180
    URB type: URB_COMPLETE ('C')
    URB transfer type: URB_BULK (0x03)
    Endpoint: 0x82, Direction: IN
        1... .... = Direction: IN (1)
        .... 0010 = Endpoint number: 2
    Device: 8
    URB bus id: 2
    Device setup request: not relevant ('-')
    Data: present (0)
    URB sec: 1573836532
    URB usec: 461
    URB status: Success (0)
    URB length [bytes]: 68
    Data length [bytes]: 68
    [Request in: 16]
    [Time from request: 0.001602000 seconds]
    [bInterfaceClass: Unknown (0xffff)]
    Unused Setup Header
    Interval: 0
    Start frame: 0
    Copy of Transfer Flags: 0x00000204
    Number of ISO descriptors: 0
Leftover Capture Data: 24474c4753562c322c312c30382c36372c31342c3034332c...

0000  80 31 ec bb fc 9d ff ff 43 03 82 08 02 00 2d 00   .1......C.....-.
0010  f4 d6 ce 5d 00 00 00 00 cd 01 00 00 00 00 00 00   ...]............
0020  44 00 00 00 44 00 00 00 00 00 00 00 00 00 00 00   D...D...........
0030  00 00 00 00 00 00 00 00 04 02 00 00 00 00 00 00   ................
0040  24 47 4c 47 53 56 2c 32 2c 31 2c 30 38 2c 36 37   $GLGSV,2,1,08,67
0050  2c 31 34 2c 30 34 33 2c 31 37 2c 36 38 2c 36 33   ,14,043,17,68,63
0060  2c 30 31 30 2c 2c 36 39 2c 35 31 2c 32 35 35 2c   ,010,,69,51,255,
0070  33 35 2c 37 36 2c 30 31 2c 30 30 38 2c 2c 33 2a   35,76,01,008,,3*
0080  37 39 0d 0a                                       79..

Frame 48: 64 bytes on wire (512 bits), 64 bytes captured (512 bits)
    Encapsulation type: USB packets with Linux header and padding (115)
    Arrival Time: Nov 15, 2019 09:48:52.000464000 MST
    [Time shift for this packet: 0.000000000 seconds]
    Epoch Time: 1573836532.000464000 seconds
    [Time delta from previous captured frame: 0.000003000 seconds]
    [Time delta from previous displayed frame: 0.000003000 seconds]
    [Time since reference or first frame: 0.235367000 seconds]
    Frame Number: 48
    Frame Length: 64 bytes (512 bits)
    Capture Length: 64 bytes (512 bits)
    [Frame is marked: False]
    [Frame is ignored: False]
    [Protocols in frame: usb]
USB URB
    [Source: host]
    [Destination: 2.8.2]
    URB id: 0xffff9dfcbbec3180
    URB type: URB_SUBMIT ('S')
    URB transfer type: URB_BULK (0x03)
    Endpoint: 0x82, Direction: IN
        1... .... = Direction: IN (1)
        .... 0010 = Endpoint number: 2
    Device: 8
    URB bus id: 2
    Device setup request: not relevant ('-')
    Data: not present ('<')
    URB sec: 1573836532
    URB usec: 464
    URB status: Operation now in progress (-EINPROGRESS) (-115)
    URB length [bytes]: 128
    Data length [bytes]: 0
    [bInterfaceClass: Unknown (0xffff)]
    Unused Setup Header
    Interval: 0
    Start frame: 0
    Copy of Transfer Flags: 0x00000204
    Number of ISO descriptors: 0

0000  80 31 ec bb fc 9d ff ff 53 03 82 08 02 00 2d 3c   .1......S.....-<
0010  f4 d6 ce 5d 00 00 00 00 d0 01 00 00 8d ff ff ff   ...]............
0020  80 00 00 00 00 00 00 00 00 00 00 00 00 00 00 00   ................
0030  00 00 00 00 00 00 00 00 04 02 00 00 00 00 00 00   ................

Frame 49: 134 bytes on wire (1072 bits), 134 bytes captured (1072 bits)
    Encapsulation type: USB packets with Linux header and padding (115)
    Arrival Time: Nov 15, 2019 09:48:52.000549000 MST
    [Time shift for this packet: 0.000000000 seconds]
    Epoch Time: 1573836532.000549000 seconds
    [Time delta from previous captured frame: 0.000085000 seconds]
    [Time delta from previous displayed frame: 0.000085000 seconds]
    [Time since reference or first frame: 0.235452000 seconds]
    Frame Number: 49
    Frame Length: 134 bytes (1072 bits)
    Capture Length: 134 bytes (1072 bits)
    [Frame is marked: False]
    [Frame is ignored: False]
    [Protocols in frame: usb]
USB URB
    [Source: 2.8.2]
    [Destination: host]
    URB id: 0xffff9dfcbbec3240
    URB type: URB_COMPLETE ('C')
    URB transfer type: URB_BULK (0x03)
    Endpoint: 0x82, Direction: IN
        1... .... = Direction: IN (1)
        .... 0010 = Endpoint number: 2
    Device: 8
    URB bus id: 2
    Device setup request: not relevant ('-')
    Data: present (0)
    URB sec: 1573836532
    URB usec: 549
    URB status: Success (0)
    URB length [bytes]: 70
    Data length [bytes]: 70
    [Request in: 18]
    [Time from request: 0.001651000 seconds]
    [bInterfaceClass: Unknown (0xffff)]
    Unused Setup Header
    Interval: 0
    Start frame: 0
    Copy of Transfer Flags: 0x00000204
    Number of ISO descriptors: 0
Leftover Capture Data: 24474c4753562c322c322c30382c37372c30362c3035362c...

0000  40 32 ec bb fc 9d ff ff 43 03 82 08 02 00 2d 00   @2......C.....-.
0010  f4 d6 ce 5d 00 00 00 00 25 02 00 00 00 00 00 00   ...]....%.......
0020  46 00 00 00 46 00 00 00 00 00 00 00 00 00 00 00   F...F...........
0030  00 00 00 00 00 00 00 00 04 02 00 00 00 00 00 00   ................
0040  24 47 4c 47 53 56 2c 32 2c 32 2c 30 38 2c 37 37   $GLGSV,2,2,08,77
0050  2c 30 36 2c 30 35 36 2c 2c 38 32 2c 31 36 2c 31   ,06,056,,82,16,1
0060  35 36 2c 33 33 2c 38 33 2c 36 35 2c 31 36 36 2c   56,33,83,65,166,
0070  33 35 2c 38 34 2c 34 39 2c 33 32 35 2c 33 39 2c   35,84,49,325,39,
0080  33 2a 37 38 0d 0a                                 3*78..

Frame 50: 64 bytes on wire (512 bits), 64 bytes captured (512 bits)
    Encapsulation type: USB packets with Linux header and padding (115)
    Arrival Time: Nov 15, 2019 09:48:52.000551000 MST
    [Time shift for this packet: 0.000000000 seconds]
    Epoch Time: 1573836532.000551000 seconds
    [Time delta from previous captured frame: 0.000002000 seconds]
    [Time delta from previous displayed frame: 0.000002000 seconds]
    [Time since reference or first frame: 0.235454000 seconds]
    Frame Number: 50
    Frame Length: 64 bytes (512 bits)
    Capture Length: 64 bytes (512 bits)
    [Frame is marked: False]
    [Frame is ignored: False]
    [Protocols in frame: usb]
USB URB
    [Source: host]
    [Destination: 2.8.2]
    URB id: 0xffff9dfcbbec3240
    URB type: URB_SUBMIT ('S')
    URB transfer type: URB_BULK (0x03)
    Endpoint: 0x82, Direction: IN
        1... .... = Direction: IN (1)
        .... 0010 = Endpoint number: 2
    Device: 8
    URB bus id: 2
    Device setup request: not relevant ('-')
    Data: not present ('<')
    URB sec: 1573836532
    URB usec: 551
    URB status: Operation now in progress (-EINPROGRESS) (-115)
    URB length [bytes]: 128
    Data length [bytes]: 0
    [bInterfaceClass: Unknown (0xffff)]
    Unused Setup Header
    Interval: 0
    Start frame: 0
    Copy of Transfer Flags: 0x00000204
    Number of ISO descriptors: 0

0000  40 32 ec bb fc 9d ff ff 53 03 82 08 02 00 2d 3c   @2......S.....-<
0010  f4 d6 ce 5d 00 00 00 00 27 02 00 00 8d ff ff ff   ...]....'.......
0020  80 00 00 00 00 00 00 00 00 00 00 00 00 00 00 00   ................
0030  00 00 00 00 00 00 00 00 04 02 00 00 00 00 00 00   ................

Frame 51: 64 bytes on wire (512 bits), 64 bytes captured (512 bits)
    Encapsulation type: USB packets with Linux header and padding (115)
    Arrival Time: Nov 15, 2019 09:48:52.000635000 MST
    [Time shift for this packet: 0.000000000 seconds]
    Epoch Time: 1573836532.000635000 seconds
    [Time delta from previous captured frame: 0.000084000 seconds]
    [Time delta from previous displayed frame: 0.000084000 seconds]
    [Time since reference or first frame: 0.235538000 seconds]
    Frame Number: 51
    Frame Length: 64 bytes (512 bits)
    Capture Length: 64 bytes (512 bits)
    [Frame is marked: False]
    [Frame is ignored: False]
    [Protocols in frame: usb]
USB URB
    [Source: 2.8.2]
    [Destination: host]
    URB id: 0xffff9dfcbbec3cc0
    URB type: URB_COMPLETE ('C')
    URB transfer type: URB_BULK (0x03)
    Endpoint: 0x82, Direction: IN
        1... .... = Direction: IN (1)
        .... 0010 = Endpoint number: 2
    Device: 8
    URB bus id: 2
    Device setup request: not relevant ('-')
    Data: present (0)
    URB sec: 1573836532
    URB usec: 635
    URB status: Success (0)
    URB length [bytes]: 0
    Data length [bytes]: 0
    [Request in: 20]
    [Time from request: 0.001620000 seconds]
    [bInterfaceClass: Unknown (0xffff)]
    Unused Setup Header
    Interval: 0
    Start frame: 0
    Copy of Transfer Flags: 0x00000204
    Number of ISO descriptors: 0

0000  c0 3c ec bb fc 9d ff ff 43 03 82 08 02 00 2d 00   .<......C.....-.
0010  f4 d6 ce 5d 00 00 00 00 7b 02 00 00 00 00 00 00   ...]....{.......
0020  00 00 00 00 00 00 00 00 00 00 00 00 00 00 00 00   ................
0030  00 00 00 00 00 00 00 00 04 02 00 00 00 00 00 00   ................

Frame 52: 64 bytes on wire (512 bits), 64 bytes captured (512 bits)
    Encapsulation type: USB packets with Linux header and padding (115)
    Arrival Time: Nov 15, 2019 09:48:52.000636000 MST
    [Time shift for this packet: 0.000000000 seconds]
    Epoch Time: 1573836532.000636000 seconds
    [Time delta from previous captured frame: 0.000001000 seconds]
    [Time delta from previous displayed frame: 0.000001000 seconds]
    [Time since reference or first frame: 0.235539000 seconds]
    Frame Number: 52
    Frame Length: 64 bytes (512 bits)
    Capture Length: 64 bytes (512 bits)
    [Frame is marked: False]
    [Frame is ignored: False]
    [Protocols in frame: usb]
USB URB
    [Source: host]
    [Destination: 2.8.2]
    URB id: 0xffff9dfcbbec3cc0
    URB type: URB_SUBMIT ('S')
    URB transfer type: URB_BULK (0x03)
    Endpoint: 0x82, Direction: IN
        1... .... = Direction: IN (1)
        .... 0010 = Endpoint number: 2
    Device: 8
    URB bus id: 2
    Device setup request: not relevant ('-')
    Data: not present ('<')
    URB sec: 1573836532
    URB usec: 636
    URB status: Operation now in progress (-EINPROGRESS) (-115)
    URB length [bytes]: 128
    Data length [bytes]: 0
    [bInterfaceClass: Unknown (0xffff)]
    Unused Setup Header
    Interval: 0
    Start frame: 0
    Copy of Transfer Flags: 0x00000204
    Number of ISO descriptors: 0

0000  c0 3c ec bb fc 9d ff ff 53 03 82 08 02 00 2d 3c   .<......S.....-<
0010  f4 d6 ce 5d 00 00 00 00 7c 02 00 00 8d ff ff ff   ...]....|.......
0020  80 00 00 00 00 00 00 00 00 00 00 00 00 00 00 00   ................
0030  00 00 00 00 00 00 00 00 04 02 00 00 00 00 00 00   ................

Frame 53: 136 bytes on wire (1088 bits), 136 bytes captured (1088 bits)
    Encapsulation type: USB packets with Linux header and padding (115)
    Arrival Time: Nov 15, 2019 09:48:52.000992000 MST
    [Time shift for this packet: 0.000000000 seconds]
    Epoch Time: 1573836532.000992000 seconds
    [Time delta from previous captured frame: 0.000356000 seconds]
    [Time delta from previous displayed frame: 0.000356000 seconds]
    [Time since reference or first frame: 0.235895000 seconds]
    Frame Number: 53
    Frame Length: 136 bytes (1088 bits)
    Capture Length: 136 bytes (1088 bits)
    [Frame is marked: False]
    [Frame is ignored: False]
    [Protocols in frame: usb]
USB URB
    [Source: 2.8.2]
    [Destination: host]
    URB id: 0xffff9dfcbbec3f00
    URB type: URB_COMPLETE ('C')
    URB transfer type: URB_BULK (0x03)
    Endpoint: 0x82, Direction: IN
        1... .... = Direction: IN (1)
        .... 0010 = Endpoint number: 2
    Device: 8
    URB bus id: 2
    Device setup request: not relevant ('-')
    Data: present (0)
    URB sec: 1573836532
    URB usec: 992
    URB status: Success (0)
    URB length [bytes]: 72
    Data length [bytes]: 72
    [Request in: 22]
    [Time from request: 0.001906000 seconds]
    [bInterfaceClass: Unknown (0xffff)]
    Unused Setup Header
    Interval: 0
    Start frame: 0
    Copy of Transfer Flags: 0x00000204
    Number of ISO descriptors: 0
Leftover Capture Data: 2447414753562c322c312c30352c30332c38302c3035372c...

0000  00 3f ec bb fc 9d ff ff 43 03 82 08 02 00 2d 00   .?......C.....-.
0010  f4 d6 ce 5d 00 00 00 00 e0 03 00 00 00 00 00 00   ...]............
0020  48 00 00 00 48 00 00 00 00 00 00 00 00 00 00 00   H...H...........
0030  00 00 00 00 00 00 00 00 04 02 00 00 00 00 00 00   ................
0040  24 47 41 47 53 56 2c 32 2c 31 2c 30 35 2c 30 33   $GAGSV,2,1,05,03
0050  2c 38 30 2c 30 35 37 2c 31 30 2c 30 35 2c 32 36   ,80,057,10,05,26
0060  2c 30 34 38 2c 31 31 2c 30 38 2c 34 34 2c 32 32   ,048,11,08,44,22
0070  36 2c 31 35 2c 31 33 2c 33 35 2c 33 31 35 2c 31   6,15,13,35,315,1
0080  32 2c 37 2a 37 41 0d 0a                           2,7*7A..

Frame 54: 64 bytes on wire (512 bits), 64 bytes captured (512 bits)
    Encapsulation type: USB packets with Linux header and padding (115)
    Arrival Time: Nov 15, 2019 09:48:52.001007000 MST
    [Time shift for this packet: 0.000000000 seconds]
    Epoch Time: 1573836532.001007000 seconds
    [Time delta from previous captured frame: 0.000015000 seconds]
    [Time delta from previous displayed frame: 0.000015000 seconds]
    [Time since reference or first frame: 0.235910000 seconds]
    Frame Number: 54
    Frame Length: 64 bytes (512 bits)
    Capture Length: 64 bytes (512 bits)
    [Frame is marked: False]
    [Frame is ignored: False]
    [Protocols in frame: usb]
USB URB
    [Source: host]
    [Destination: 2.8.2]
    URB id: 0xffff9dfcbbec3f00
    URB type: URB_SUBMIT ('S')
    URB transfer type: URB_BULK (0x03)
    Endpoint: 0x82, Direction: IN
        1... .... = Direction: IN (1)
        .... 0010 = Endpoint number: 2
    Device: 8
    URB bus id: 2
    Device setup request: not relevant ('-')
    Data: not present ('<')
    URB sec: 1573836532
    URB usec: 1007
    URB status: Operation now in progress (-EINPROGRESS) (-115)
    URB length [bytes]: 128
    Data length [bytes]: 0
    [bInterfaceClass: Unknown (0xffff)]
    Unused Setup Header
    Interval: 0
    Start frame: 0
    Copy of Transfer Flags: 0x00000204
    Number of ISO descriptors: 0

0000  00 3f ec bb fc 9d ff ff 53 03 82 08 02 00 2d 3c   .?......S.....-<
0010  f4 d6 ce 5d 00 00 00 00 ef 03 00 00 8d ff ff ff   ...]............
0020  80 00 00 00 00 00 00 00 00 00 00 00 00 00 00 00   ................
0030  00 00 00 00 00 00 00 00 04 02 00 00 00 00 00 00   ................

Frame 55: 97 bytes on wire (776 bits), 97 bytes captured (776 bits)
    Encapsulation type: USB packets with Linux header and padding (115)
    Arrival Time: Nov 15, 2019 09:48:52.001041000 MST
    [Time shift for this packet: 0.000000000 seconds]
    Epoch Time: 1573836532.001041000 seconds
